:100000000C947A000C946A050C949B000C949B0051
:100010000C949B000C949B000C949B000C949B00F4
:100020000C949B000C949B000C949B000C949B00E4
:100030000C949B000C949B000C949B000C949B00D4
:100040000C949B000C949B000C949B000C949B00C4
:100050000C949B000C949B000C949B000C949B00B4
:100060000C949B000C94EB000C940E010C949B00E0
:100070000C949B000C949B000C949B000C949B0094
:100080000C945A030C949B000C949B000C949B00C2
:100090000C949B000C949B000C949B000C949B0074
:1000A0000C949B000C949B000C94B1080C949B0046
:1000B0000C949B000C949B000C949B000C949B0054
:1000C0000C949B000C949B000C9454080C949B0083
:1000D0000C949B000C949B000C949B000C949B0034
:1000E0000C949B000C9403020C94B3000C949D00A0
:1000F0000C94A70011241FBECFEFD1E2DEBFCDBF0D
:1001000000E00CBF14E0A0E0B2E0E4E8F0E200E0C0
:100110000BBF02C007900D92A633B107D9F725E1B6
:10012000A6E3B4E001C01D92A932B207E1F70E9434
:10013000390A0C9440100C9400002FEF83ED90E3EB
:10014000215080409040E1F700C00000F6CF0E94AF
:100150000A092FEF81EE94E0215080409040E1F7B2
:1001600000C00000F4CFCF93DF93CDB7DEB7DA95B0
:100170000FB6F894DEBF0FBECDBF9E012F5F3F4F7D
:10018000790180E091E0F9019C0111922150304009
:10019000E1F710E0C12CDD24D3940E943B018A30AA
:1001A00079F08D3069F0F701E10FF11D80831F5F59
:1001B000F701E10FF11D10820E943B018A3089F79F
:1001C000C7010E94C706F7019601119221503040E5
:1001D000E1F710E0E2CF1F920F920FB60F921124B9
:1001E0000BB60F928F939F93EF93FF938091C6006E
:1001F000E0913908EF5FE093390890913808F0E01A
:10020000E65CF74F8083FF91EF919F918F910F9064
:100210000BBE0F900FBE0F901F9018951F920F925C
:100220000FB60F9211240BB60F928F939F93EF93FB
:10023000FF9390913704809136049817B1F0E091C4
:100240003604EF5FE0933604F0E0E85CFB4F80811A
:100250008093C600FF91EF919F918F910F900BBEFD
:100260000F900FBE0F901F9018958091C1008F7D49
:100270008093C100EFCFF8949091380880913908AD
:100280001F929F931F928F9382E192E09F938F938F
:100290000E94030D78940F900F900F900F900F9085
:1002A0000F9090913908809138089817D1F3E09118
:1002B0003808EF5FE0933808F0E0E65CF74F8081A4
:1002C0000895209137042F5F909136042917E1F3A8
:1002D000E22FF0E0E85CFB4F8083209337048091AD
:1002E000C10080628093C1000895FC0130813323F6
:1002F000C1F0DC011196209137042F5F90913604F4
:100300002917E1F3E22FF0E0E85CFB4F3083209304
:1003100037049091C10090629093C1003D913111DA
:10032000EACF08959093C5008093C40086E080933F
:10033000C20088E98093C1001092380810923908F1
:10034000109236041092370408959091C00095FFE2
:10035000FCCF8093C60008958091C00087FFFCCF3A
:100360008091C60008958091C000881F8827881F4B
:100370000895FC012081222351F031969091C00014
:1003800095FFFCCF2093C60021912111F7CF08954E
:100390008A3049F09091C00095FFFCCF8093C60051
:1003A00080E090E008959091C00095FFFCCF9DE023
:1003B0009093C600EFCF1092C50082E38093C400F3
:1003C00086E08093C20088E98093C10010923808CB
:1003D0001092390810923604109237040895109242
:1003E000C50082E38093C40086E08093C20088E960
:1003F0008093C10010923808109239081092360488
:100400001092370408957894A0913F0CB091400C5D
:10041000109789F01296ED91FC911397309759F04F
:1004200014966D917D918D919C9117971995A0913E
:100430003F0CB091400C81E052968C9308950F933D
:100440001F93FC01538342830483158326833783E0
:10045000138612861186108682E0828B83E092E0FA
:10046000DB018C9311979C9311971C9211971C920E
:1004700011971C9211971C9211971C9211971C9224
:1004800011971C9211971C9211971C9211971C9214
:1004900011971C9211971C9211971C9211971C9204
:1004A00011971C9211971C9211971C9211971C92F4
:1004B00011971C9211971C9211971C926751710908
:1004C000718360831F910F910895CF93DF93FC0197
:1004D000A081B1811097B1F084818130B9F0189674
:1004E000CD91DC911997D183C083DB87CA87848142
:1004F0008150848319961C921E9218971B961C9209
:100500001E921A97CD01DF91CF9108951382128226
:1005100011821082EDCFDB011A962D913C911B9731
:10052000232B11F08FEF089518962D913C91199778
:10053000232BC1F7FC012481211115C07183608335
:10054000738362831B967C936E931A9719961C9201
:100550001E921897DC0114962C9114972F5F149615
:100560002C9380E008950280F381E02D71876087ED
:10057000DB011B96FC93EE931A9719961C921E9220
:100580001897FC0173836283E5CF0F931F93CF937A
:10059000DF93FC01C081D18180E292E00E94170DBF
:1005A0002097E9F004E312E089858F9388858F9383
:1005B0008B858F938A858F93DF93CF931F930F93B0
:1005C0000E94030D0884D985C02DEDB7FEB738967B
:1005D0000FB6F894FEBF0FBEEDBF209729F78BE250
:1005E00092E0DF91CF911F910F910C94170D2F92F4
:1005F0003F924F925F926F927F928F929F92AF92B3
:10060000BF92CF92DF92EF92FF920F931F93CF93FF
:10061000DF930BB60F920CB60F920DB71EB7C82F13
:10062000D92F08831983C62FD72F088119810DBFB1
:100630001EBF0F900CB60F900BB6DF91CF911F919C
:100640000F91FF90EF90DF90CF90BF90AF909F9071
:100650008F907F906F905F904F903F902F90089574
:10066000C82FD92F088119810DBF1EBF0F900CB65E
:100670000F900BB6DF91CF911F910F91FF90EF90EC
:10068000DF90CF90BF90AF909F908F907F906F90B2
:100690005F904F903F902F9018958AE698E1909345
:1006A00099008093980082E0809371008CE08093A1
:1006B000910008951F920F920FB60F9211240BB65E
:1006C0000F922F933F934F935F936F937F938F93EB
:1006D0009F93AF93BF93EF93FF930E949703FF9174
:1006E000EF91BF91AF919F918F917F916F915F91AA
:1006F0004F913F912F910F900BBE0F900FBE0F9017
:100700001F901895F8948AE39CE00E9465029093EC
:10071000400C80933F0C892B41F00E944D03809147
:100720003F0C9091400C0C9430030E947B0CCF93B3
:10073000DF93C0913F0CD091400CBE018AE39CE056
:100740000E948B028AE39CE00E9465029093400C19
:1007500080933F0CC817D90731F0BC01CE01DF915F
:10076000CF910C94F702DF91CF9108958091010110
:10077000806380930101809102018F7E809302014A
:10078000809102018062809302019D9AA598269A29
:100790002E986091430C87E090E041E050E015C056
:1007A00020910201206220930201A59AEFEDFEE262
:1007B0003197F1F700C00000A598EFEDFEE2319708
:1007C000F1F700C00000019770F09A01082E01C0F7
:1007D000220F0A94EAF7262319F7209102012F7DB0
:1007E00020930201E2CF2E9A8FED9EE20197F1F75E
:1007F00000C000002E98EFEDFEE23197F1F700C047
:100800000000809102018F7E809302010895A59AD5
:100810008FED9EE20197F1F700C00000A5988FEDE3
:100820009EE20197F1F700C0000008952E9A8FED27
:100830009EE20197F1F700C000002E988FED9EE236
:100840000197F1F700C00000089527E030E061E073
:1008500070E014C0906290930201A59AEFEDFEE261
:100860003197F1F700C00000A598EFEDFEE2319757
:10087000F1F700C000002150310978F0AB01022EE1
:1008800001C0440F0A94EAF74823909102014111F4
:10089000E1CF9F7D90930201E0CF2E9A8FED9EE2F3
:1008A0000197F1F700C000002E98EFEDFEE23197BE
:1008B000F1F700C00000809102018F7E8093020159
:1008C00008954091430C813041F4613009F446C0F1
:1008D00008F449C0623009F43CC087E090E061E070
:1008E00070E015C020910201206220930201A59AB8
:1008F000EFEDFEE23197F1F700C00000A598EFEDB3
:10090000FEE23197F1F700C00000019770F09B0103
:10091000082E01C0220F0A94EAF7242319F7209128
:1009200002012F7D20930201E2CF2E9A8FED9EE2ED
:100930000197F1F700C000002E98EFEDFEE231972D
:10094000F1F700C00000809102018F7E80930201C8
:100950000895407F48604093430CBFCF407F446080
:100960004093430CBACF407F4C604093430CB5CFCB
:1009700080342CE9920710F08FE39CE99093890072
:10098000809388000895853608F084E6A09186005B
:10099000B0918700282F30E00E94A50A24E630E0BD
:1009A00040E050E00E94830A309389002093880041
:1009B00080918800809189000895653608F064E68A
:1009C000A0918600B0918700262F30E00E94A50AF2
:1009D00024E630E040E050E00E94830A3093890032
:1009E0002093880080918800809189000895AF92BB
:1009F000BF92CF92DF92EF92FF920F931F93CF930C
:100A0000DF93CDB7DEB7DA950FB6F894DEBF0FBE31
:100A1000CDBF80E8A82EB12CF50180811F928F9365
:100A20009CE4E92E92E0F92EFF92EF928E010F5F87
:100A30001F4F1F930F930E94470DC8010E9475011D
:100A400021E8C22ED12CF60180811F928F93FF9254
:100A5000EF921F930F930E94470DC8010E947501EA
:100A6000259A82E8F50180838AE1F6018083E6E831
:100A7000F0E08FE39CE99183808380819181E9E8B4
:100A8000F0E01082A8E8B0E01C928C9180810FB653
:100A9000F894DEBF0FBECDBFD3950FB6F894DEBF7E
:100AA0000FBECDBFDF91CF911F910F91FF90EF90BF
:100AB000DF90CF90BF90AF9008958AB18C7F8AB9B4
:100AC0008BB183608BB9E9E6F0E08081836080833D
:100AD000E89A08951F920F920FB60F9211248F93E8
:100AE0009F938091410C9091420C01969093420CFF
:100AF0008093410C9F918F910F900FBE0F901F908C
:100B000018955091430C813041F4413009F471C083
:100B100008F474C0423009F467C087E090E0E1E077
:100B2000F0E015C020910201206220930201A59AF5
:100B3000AFEDBEE21197F1F700C00000A598AFED50
:100B4000BEE21197F1F700C00000019770F09F011D
:100B5000082E01C0220F0A94EAF7252319F72091E5
:100B600002012F7D20930201E2CF2E9A8FED9EE2AB
:100B70000197F1F700C000002E98AFEDBEE211978B
:100B8000F1F700C00000809102018F7E8093020186
:100B90004130E9F088F0423071F47093690C609351
:100BA000680C81E08093670C81E090E09093510C99
:100BB0008093500C089508951092690C1092680C5F
:100BC0001092670C1092510C1092500C0895709373
:100BD000690C6093680C4093670C81E090E09093FF
:100BE000510C8093500C0895507F58605093430CE3
:100BF00094CF507F54605093430C8FCF507F5C60F4
:100C00005093430C8ACFEF92FF920F931F93CF9391
:100C1000DF930097C1F07C018C01C0E0D0E009C0F7
:100C2000F801808190E00E949E0CF80181938F0171
:100C30002196F70101900020E9F73197EE19FF099D
:100C4000CE17DF0768F3DF91CF911F910F91FF90CF
:100C5000EF9008950097A9F0DC010D900020E9F7CE
:100C6000FC01CD01019707C0219130E020533109EB
:100C70002A30310530F4E817F907B1F781E090E048
:100C8000089580E090E008954F925F926F927F9276
:100C90009F92AF92BF92CF92DF92EF92FF920F930B
:100CA0001F93CF93DF935C012A013B01C22FCB013D
:100CB000BA010E94260B6B017C018B014AE0B50151
:100CC000C6010E94D60C20E030E0A901C301B201A8
:100CD0000E94210B87FD52C0F50101900020E9F729
:100CE00031976F01CA18DB08992493949C0CDD247A
:100CF000F501EC0DFD1D8EE28083CC0ED11CC92DBB
:100D0000D0E0CC16DD0654F1B801110F880B990B19
:100D10000E945E0B9B01AC01C301B2010E94B40AA8
:100D200020E030E040E251E40E940E0C2B013C0137
:100D30000E94260BDC01CB018C014AE0E12CF12C56
:100D4000B7010E94D60CCA0DDB1DF7018081888394
:100D50009394C92DD0E0CC16DD06B4F6DF91CF9187
:100D60001F910F91FF90EF90DF90CF90BF90AF90C9
:100D70009F907F906F905F904F90089577FA709456
:100D800077F87094002711270C191D09A5CFAF9291
:100D9000BF92CF92DF92EF92FF920F931F93CF9368
:100DA000DF93CDB7DEB7C250D1400FB6F894DEBFA7
:100DB0000FBECDBFAE014F5F5E4F6AE472E00E948E
:100DC000AF0C8C010E94030664E572E0C8010E942A
:100DD000A60C892B09F489C065E772E0C8010E945E
:100DE000A60C892B09F4BFC064E073E0C8010E941F
:100DF000A60C892B09F4F6C065E473E0C8010E94D3
:100E0000A60C892B09F052C0AE014F5F5E4F6AE419
:100E100072E080E090E00E94AF0C8C010E942A06F4
:100E2000892B09F4DBC0C8010E94800CF82EAE01AA
:100E30004F5F5E4F6AE472E080E090E00E94AF0C8A
:100E40008C010E942A06892B09F418C1C8010E944E
:100E5000800C9093450C8093440CAE014F5F5E4F25
:100E60006AE472E080E090E00E94AF0C8C016BE7D6
:100E700072E00E94A60C892B09F40DC163E872E0B0
:100E8000C8010E94A60C892B09F4EFC06CE872E03F
:100E9000C8010E94A60C892B49F46091440C709102
:100EA000450C40E08F2D0E9481050DC085E3E4E9EB
:100EB000F2E0DE01119601900D928A95E1F7CE01E4
:100EC00001960E947501CE5FDE4F0FB6F894DEBF2B
:100ED0000FBECDBFDF91CF911F910F91FF90EF908B
:100EE000DF90CF90BF90AF90089580E1E9E5F2E008
:100EF0009E012F5F3F4F7901D90101900D928A9594
:100F0000E1F7C9010E94750100E012E088E0A82E17
:100F100082E0B82E9BE2C92E94E0D92EF8018081A0
:100F200091810E5F1F4F9F938F93DF92CF92FF921D
:100F3000EF920E94470DC7010E9475010F900F901C
:100F40000F900F900F900F90A016B10639F78CE01C
:100F5000E9E6F2E0D70101900D928A95E1F7C70129
:100F60000E947501B0CFAE014F5F5E4F6AE472E040
:100F700080E090E00E94AF0C8C010E942A06892B31
:100F800069F1C8010E94800CF82EAE014F5F5E4FE0
:100F90006AE472E080E090E00E94AF0C8C010E9455
:100FA00003066BE772E0C8010E94A60C892B09F4C6
:100FB00057C063E872E0C8010E94A60C892B09F4AF
:100FC00065C06CE872E0C8010E94A60C892B09F08C
:100FD0006DCF60E08F2D0E94610475CF8BE3E9EC4B
:100FE000F2E067CFAE014F5F5E4F6AE472E080E0EF
:100FF00090E00E94AF0C8C010E942A06892B71F3AD
:10100000C8010E94800CF82EAE014F5F5E4F6AE46B
:1010100072E080E090E00E94AF0C8C010E942A06F2
:10102000892B81F1C8010E94800CBC018F2D0E9488
:10103000DD04AE014F5F5E4F6AE472E080E090E055
:101040000E94AF0C8C010E9403066BE772E0C8019E
:101050000E94A60C892B09F0ACCFC8010E94750133
:1010600061E08F2D0E9461042ECF6091440C70913D
:10107000450C42E08F2D0E94810525CF86E3EEE4EA
:10108000F3E017CF88E3EDE0F3E013CF62E08F2DBC
:101090000E94610418CF6091440C7091450C41E0AE
:1010A0008F2D0E9481050FCF1F920F920FB60F92C6
:1010B00011248F939F93AF93BF938091460C90918F
:1010C000470CA091480CB091490C0196A11DB11D8F
:1010D0008093460C9093470CA093480CB093490C16
:1010E0009BB184E089278BB9BF91AF919F918F917C
:1010F0000F900FBE0F901F9018951092200182E064
:101100008093210181E08093730010922501109259
:10111000240178940895F8948091460C9091470C9E
:10112000A091480CB091490C2091240130912501E7
:10113000D09B07C02F3F4FEF340719F00196A11D38
:10114000B11D7894DC0199278827820F931FA11D78
:10115000B11DB695A79597958795BC01CD019F7058
:1011600008951F920F920FB60F9211242F933F9361
:101170004F936F937F938F939F93AF93BF93809180
:10118000410C9091420C20914E0C30914F0C821BDF
:10119000930B42E3489F9001499F300D11243093F7
:1011A0004D0C20934C0C20914C0C30914D0CA9E827
:1011B000B8E80E94A50A9695879596958795969585
:1011C000879590934B0C80934A0C8091410C9091A1
:1011D000420C90934F0C80934E0CBF91AF919F9116
:1011E0008F917F916F914F913F912F910F900FBEF3
:1011F0000F901F9018951092A0008CE08093A10092
:1012000089E698E19093A9008093A80082E08093FA
:10121000720008954F925F926F927F928F929F9289
:10122000AF92BF92CF92DF92EF92FF920F931F93F4
:10123000CF93DF93CDB7DEB7C851D1400FB6F89446
:10124000DEBF0FBECDBF8091670C882309F4F2C0CA
:101250008091500C9091510C892B09F0D8C08E01CF
:101260000F5F1F4FE0904A0CF0904B0C6091680CA0
:101270007091690C072E000C880B990B0E945E0B75
:101280004B015C01B70180E090E00E945C0B9B0188
:10129000AC01C501B4010E94B40A6B017C0120E0DD
:1012A00030E040EE50E40E940E0C20915E0C309134
:1012B0005F0C4091600C5091610C0E94B50A4B018B
:1012C0005C016093620C7093630C8093640C909348
:1012D000650C20E030E040EC50E4C701B6010E940C
:1012E0000E0C2B013C0160935A0C70935B0C8093A5
:1012F0005C0C90935D0C2091520C3091530C4091FA
:10130000540C5091550CC701B6010E94B40ACB5E33
:10131000DE4F688379838A839B83C551D140609374
:10132000560C7093570C8093580C9093590CA30152
:101330009201C501B4010E94B50ACB5EDE4F28813F
:1013400039814A815B81C551D1400E94B50A0E9412
:101350002D0B4B015E0121E0A20EB21E22E0B7016F
:10136000A601C5010E94440680914A0C90914B0C45
:10137000BF92AF929F938F938091690C8F938091CE
:10138000680C8F939F928F9281E294E09F938F934A
:101390001F930F930E94470DC8010E947501C4015D
:1013A0000E94B8048091620C9091630CA091640C2F
:1013B000B091650C80935E0C90935F0CA093600CD1
:1013C000B093610CC092520CD092530CE092540C2A
:1013D000F092550C0FB6F894DEBF0FBECDBFC85EBD
:1013E000DE4F0FB6F894DEBF0FBECDBFDF91CF91B9
:1013F0001F910F91FF90EF90DF90CF90BF90AF9033
:101400009F908F907F906F905F904F900895109273
:10141000510C1092500C87E0EAE1F4E08E010F5F6E
:101420001F4FD80101900D928A95E1F7C8010E94E3
:10143000750118CF1092510C1092500C8091410CF4
:101440009091420C86E0EFE2F4E0DE01119601900B
:101450000D928A95E1F7CE0101960E9475019FEFEA
:10146000A3EDB0E39150A040B040E1F700C0000010
:10147000B6CF0F931F930E94EF010E94B6030E9404
:10148000F7040E945D050E94FB0800E010E098014F
:101490004DE950E06FE071E180E191E10E941F02AF
:1014A00000E010E0980147EA50E069E670E18DE75E
:1014B00090E10E941F0200E010E0980143EB50E031
:1014C00062E275E18AE690E10E941F026DE770E139
:1014D0008AE39CE00E948B026AE670E18AE39CE06A
:1014E0000E948B0260E171E18AE39CE00E948B0222
:1014F00088E092E00E94B9010E94820380E090E0BF
:101500001F910F910895A1E21A2EAA1BBB1BFD018A
:101510000DC0AA1FBB1FEE1FFF1FA217B307E407D2
:10152000F50720F0A21BB30BE40BF50B661F771F2A
:10153000881F991F1A9469F760957095809590950A
:101540009B01AC01BD01CF010895A29FB001B39FE3
:10155000C001A39F700D811D1124911DB29F700DBC
:10156000811D1124911D08955058BB27AA270E9460
:10157000CC0A0C94D40B0E94C60B38F00E94CD0B01
:1015800020F039F49F3F19F426F40C94C30B0EF4A9
:10159000E095E7FB0C94BD0BE92F0E94E50B58F397
:1015A000BA17620773078407950720F079F4A6F548
:1015B0000C94070C0EF4E0950B2EBA2FA02D0B0106
:1015C000B90190010C01CA01A0011124FF27591B88
:1015D00099F0593F50F4503E68F11A16F040A22F8E
:1015E000232F342F4427585FF3CF469537952795FF
:1015F000A795F0405395C9F77EF41F16BA0B620BFE
:10160000730B840BBAF09150A1F0FF0FBB1F661F44
:10161000771F881FC2F70EC0BA0F621F731F841F87
:1016200048F4879577956795B795F7959E3F08F0AD
:10163000B0CF9395880F08F09927EE0F979587956F
:1016400008950E94990B08F481E008950E942D0BE3
:101650006894B1110C94080C08950E94ED0B88F069
:101660009F5798F0B92F9927B751B0F0E1F0660F66
:10167000771F881F991F1AF0BA95C9F714C0B130A7
:1016800091F00E94070CB1E008950C94070C672FAD
:10169000782F8827B85F39F0B93FCCF386957795D6
:1016A0006795B395D9F73EF49095809570956195BF
:1016B0007F4F8F4F9F4F0895E89409C097FB3EF4EA
:1016C00090958095709561957F4F8F4F9F4F99238F
:1016D000A9F0F92F96E9BB279395F695879577950D
:1016E0006795B795F111F8CFFAF4BB0F11F460FFCD
:1016F0001BC06F5F7F4F8F4F9F4F16C0882311F025
:1017000096E911C0772321F09EE8872F762F05C038
:10171000662371F096E8862F70E060E02AF09A95D3
:10172000660F771F881FDAF7880F9695879597F9C8
:101730000895990F0008550FAA0BE0E8FEEF161662
:101740001706E807F907C0F012161306E407F507B5
:1017500098F0621B730B840B950B39F40A2661F029
:10176000232B242B252B21F408950A2609F4A140CC
:10177000A6958FEF811D811D089597F99F6780E8D9
:1017800070E060E008959FEF80EC089500240A94D3
:101790001616170618060906089500240A9412164C
:1017A0001306140605060895092E0394000C11F47F
:1017B000882352F0BB0F40F4BF2B11F460FF04C02C
:1017C0006F5F7F4F8F4F9F4F089557FD9058440F85
:1017D000551F59F05F3F71F04795880F97FB991F90
:1017E00061F09F3F79F0879508951216130614064D
:1017F000551FF2CF4695F1DF08C0161617061806DA
:10180000991FF1CF86957105610508940895E894B4
:10181000BB2766277727CB0197F908950E94210CF3
:101820000C94D40B0E94C60B38F00E94CD0B20F014
:10183000952311F00C94BD0B0C94C30B11240C9444
:10184000080C0E94E50B70F3959FC1F3950F50E0D3
:10185000551F629FF001729FBB27F00DB11D639F62
:10186000AA27F00DB11DAA1F649F6627B00DA11D08
:10187000661F829F2227B00DA11D621F739FB00DAE
:10188000A11D621F839FA00D611D221F749F33271E
:10189000A00D611D231F849F600D211D822F762FB7
:1018A0006A2F11249F5750409AF0F1F088234AF094
:1018B000EE0FFF1FBB1F661F771F881F9150504000
:1018C000A9F79E3F510580F00C94BD0B0C94080CB9
:1018D0005F3FE4F3983ED4F3869577956795B79587
:1018E000F795E7959F5FC1F7FE2B880F911D9695A1
:1018F000879597F9089581E090E0F8940C94401052
:10190000FC0188279927E89421912032E9F32930B6
:1019100010F02E30C8F32B3241F02D3239F4689498
:1019200004C00E94E10C820F911D219120532A30A6
:10193000C0F31EF4909581959F4F089591110895DD
:1019400081548A5108F4805E855A0895FB01DC01B8
:101950008D91019080190110D9F3990B0895FA0126
:10196000A191B081009719F41097E1F0CD01DC014D
:10197000CD010D90002011F4C00113C0FB01219195
:10198000222319F02015D9F7F3CFFB01219120155F
:1019900019F41E92119606C02223C1F70D90002063
:1019A000A1F7D001FA01A193B0830895BB274A3073
:1019B00031F4992322F4BDE2909581959F4F0C94C8
:1019C000EA0C7AE0979F902D879F802D910D11242E
:1019D0000895BB27FB015527AA27880F991FAA1F27
:1019E000A41710F0A41B83955051B9F7A05DAA333A
:1019F00008F0A95DA193009779F7B111B193119205
:101A0000CB010C94960FCF93DF93CDB7DEB7AE0129
:101A10004A5F5F4FFA0161917191AF018091251585
:101A2000909126150E94760DDF91CF9108950F9326
:101A30001F93CF93DF93E0912515F0912615238115
:101A400021FF1BC08C01D0E0C0E0F80181918F0123
:101A50006091251570912615DB011896ED91FC918A
:101A60001997882331F01995892B79F3DFEFCFEFA0
:101A7000ECCF8AE01995892B19F08FEF9FEF02C008
:101A80008D2F9C2FDF91CF911F910F9108950F9370
:101A90001F93CF93DF93CDB7DEB72E970FB6F89491
:101AA000DEBF0FBECDBF0E891F8986E08C831A83EF
:101AB00009838FEF9FE79E838D83AE01465E5F4F64
:101AC000688D798DCE0101960E94760DEF81F885A3
:101AD000E00FF11F10822E960FB6F894DEBF0FBEF6
:101AE000CDBFDF91CF911F910F9108952F923F921B
:101AF0004F925F926F927F928F929F92AF92BF921E
:101B0000CF92DF92EF92FF920F931F93CF93DF93C9
:101B1000CDB7DEB72B970FB6F894DEBF0FBECDBFA3
:101B20006C017B018A01FC0117821682838181FF8F
:101B3000CCC1CE0101963C01F6019381F70193FDE2
:101B4000859193FF81917F01882309F4BAC1853281
:101B500039F493FD859193FF81917F01853229F4BA
:101B6000B60190E00E94A60FE7CF912C212C312CDA
:101B7000FFE1F315D8F08B3279F038F4803279F048
:101B80008332A1F4232D20611DC08D3261F080339A
:101B900069F4232D216016C0832D8260382EE32D39
:101BA000E4603E2E2AC0F32DF8601DC037FC2DC026
:101BB00020ED280F2A3040F08E32B9F436FC81C176
:101BC000232D2064322E19C036FE06C08AE0989E6E
:101BD000200D1124922E11C0EAE02E9E200D11241A
:101BE000222EF32DF0623F2E08C08C3621F4832D77
:101BF0008068382E02C0883641F4F70193FD859144
:101C000093FF81917F018111B3CF982F9F7D9554D0
:101C1000933028F40C5F1F4F9FE399830DC08336E8
:101C200031F0833771F0833509F059C021C0F801D4
:101C3000808189830E5F1F4F88248394912C5301E8
:101C400013C02801F2E04F0E511CF801A080B180B2
:101C500036FE03C0692D70E002C06FEF7FEFC50153
:101C60000E948B0F4C018201F32DFF773F2E16C08F
:101C7000280122E0420E511CF801A080B18036FEFE
:101C800003C0692D70E002C06FEF7FEFC5010E94B5
:101C9000800F4C01F32DF0683F2E820133FC1BC0F6
:101CA000822D90E088169906B0F4B60180E290E0AB
:101CB0000E94A60F2A94F4CFF50137FC859137FED8
:101CC00081915F01B60190E00E94A60F21102A9435
:101CD00021E0821A91088114910471F7E8C08436DA
:101CE00011F0893641F5F80137FE07C06081718136
:101CF000828193810C5F1F4F08C060817181072E24
:101D0000000C880B990B0E5F1F4FF32DFF763F2EB3
:101D100097FF09C090958095709561957F4F8F4F83
:101D20009F4FF0683F2E2AE030E0A3010E94E20FAF
:101D3000882E861845C0853731F4232D2F7EB22E8C
:101D40002AE030E025C0932D997FB92E8F36C1F05F
:101D500018F4883579F0B5C0803719F0883721F04C
:101D6000B0C0E92FE061BE2EB4FE0DC0FB2DF460C3
:101D7000BF2E09C034FE0AC0292F2660B22E06C02D
:101D800028E030E005C020E130E002C020E132E090
:101D9000F801B7FE07C060817181828193810C5F79
:101DA0001F4F06C06081718180E090E00E5F1F4F81
:101DB000A3010E94E20F882E8618FB2DFF773F2E8D
:101DC00036FE0DC0232D2E7FA22E891458F434FE2A
:101DD0000BC032FC09C0832D8E7EA82E05C0B82C06
:101DE000A32C03C0B82C01C0B92CA4FE0FC0FE0167
:101DF000E80DF11D8081803321F49A2D997EA92E62
:101E000009C0A2FE06C0B394B39404C08A2D86789C
:101E100009F0B394A3FC11C0A0FE06C0B21488F46C
:101E2000280C922C9B180EC0B21460F4B60180E20C
:101E300090E00E94A60FB394F7CFB21418F42B18B9
:101E400002C0982C212CA4FE10C0B60180E390E0C3
:101E50000E94A60FA2FE17C0A1FC03C088E790E075
:101E600002C088E590E0B6010CC08A2D867859F052
:101E7000A1FE02C08BE201C080E2A7FC8DE2B601A8
:101E800090E00E94A60F891438F4B60180E390E038
:101E90000E94A60F9A94F7CF8A94F301E80DF11DE2
:101EA0008081B60190E00E94A60F8110F5CF22201C
:101EB00009F442CEB60180E290E00E94A60F2A9477
:101EC000F6CFF6018681978102C08FEF9FEF2B96A8
:101ED0000FB6F894DEBF0FBECDBFDF91CF911F913B
:101EE0000F91FF90EF90DF90CF90BF90AF909F90B9
:101EF0008F907F906F905F904F903F902F900895BC
:101F0000FC010590615070400110D8F780959095C4
:101F10008E0F9F1F0895FC016150704001900110C9
:101F2000D8F7809590958E0F9F1F0895DC01FC01D6
:101F3000672F71917723E1F7329704C07C916D93FD
:101F400070836291AE17BF07C8F308950F931F9374
:101F5000CF93DF93FB01238121FD03C08FEF9FEF20
:101F60002CC022FF16C0468157812481358142173B
:101F7000530744F4A081B1819D012F5F3F4F31830E
:101F800020838C93268137812F5F3F4F37832683B1
:101F900014C08B01EC01FB010084F185E02D199543
:101FA000892BE1F6D80116968D919C911797019691
:101FB00017969C938E931697CE01DF91CF911F9128
:101FC0000F910895FA01AA27283051F1203181F1AB
:101FD000E8946F936E7F6E5F7F4F8F4F9F4FAF4F31
:101FE000B1E03ED0B4E03CD0670F781F891F9A1F44
:101FF000A11D680F791F8A1F911DA11D6A0F711DF8
:10200000811D911DA11D20D009F468943F912AE003
:10201000269F11243019305D3193DEF6CF010895EB
:10202000462F4770405D4193B3E00FD0C9F7F6CF1C
:10203000462F4F70405D4A3318F0495D31FD4052E4
:10204000419302D0A9F7EACFB4E0A695979587957A
:1020500077956795BA95C9F7009761057105089559
:102060009B01AC010A2E0694579547953795279505
:10207000BA95C9F7620F731F841F951FA01D08959D
:04208000F894FFCF02
:1020840054028403A703E2037374617274696E6774
:102094000A00483A20256420543A202564200A0086
:1020A40073746172742D6C69737400656E642D6C45
:1020B400697374005B633A2025702C20703A2025E4
:1020C400702C206E3A2025705D0A20000A202530ED
:1020D40034580A0068656C70004C6973746120633D
:1020E4006F6D616E64693A0A0046696E65204C69D9
:1020F4007374610A006D6F746F7200666F7277613A
:102104007264006261636B776172640072656C650E
:1021140061736500436F6D616E646F206E6F6E2036
:1021240076616C69646F2C207365207365727665C3
:1021340020616975746F20736372697665726520B6
:102144002768656C7027200A004E756D65726F20D4
:102154006D6F746F7265206E6F6E2076616C69644A
:102164006F2C2073652073657276652061697574C0
:102174006F207363726976657265202768656C7079
:1021840027200A006D6F746F7270776D0064757428
:1021940079206379636C65206E6F6E2076616C695B
:1021A400646F2C2073652073657276652061697590
:1021B400746F207363726976657265202768656C35
:1021C4007027200A006D6F746F7272706D007270E8
:1021D4006D76616C7565206E6F6E2076616C6964D6
:1021E4006F2C207365207365727665206169757440
:1021F4006F207363726976657265202768656C70F9
:1022040027200A006D6F746F722031205B666F7235
:10221400776172642F6261636B776172642F726598
:102224006C656173655D006D6F746F7270776D209E
:102234003120647574796379636C65205B30202E7A
:102244002E203130305D205B666F72776172642FAF
:102254006261636B776172642F72656C656173652B
:102264005D006D6F746F7272706D20312072706DCD
:1022740076616C7565205B302E2E3430305D205BCA
:10228400666F72776172642F6261636B77617264E7
:102294002F72656C656173655D0053544152540A35
:1022A400002325752C25752C25752C25730A0053C0
:0622B400544F500A000027
:0400000500800C501B
:00000001FF
