:100000000C947A000C9409050C949B000C949B00B2
:100010000C949B000C949B000C949B000C949B00F4
:100020000C949B000C949B000C949B000C949B00E4
:100030000C949B000C949B000C949B000C949B00D4
:100040000C949B000C9458030C949B000C949B0004
:100050000C949B000C949B000C949B000C949B00B4
:100060000C949B000C94E9000C940C010C949B00E4
:100070000C949B000C949B000C949B000C949B0094
:100080000C949B000C949B000C949B000C949B0084
:100090000C949B000C949B000C949B000C949B0074
:1000A0000C949B000C949B000C945C070C949B009C
:1000B0000C949B000C949B000C949B000C949B0054
:1000C0000C949B000C949B000C94FF060C949B00DA
:1000D0000C949B000C949B000C949B000C949B0034
:1000E0000C949B000C9401020C949D000C94B100A4
:1000F0000C94A70011241FBECFEFD1E2DEBFCDBF0D
:1001000000E00CBF14E0A0E0B2E0E0E7F8E100E0BE
:100110000BBF02C007900D92A834B107D9F725E1B3
:10012000A8E4B4E001C01D92AE31B207E1F70E942D
:1001300029080C94360C0C9400002FEF83E294EF06
:10014000215080409040E1F700C00000F6CF2FEF33
:1001500083ED90E3215080409040E1F700C0000023
:10016000F6CFCF93DF93CDB7DEB7DA950FB6F8941D
:10017000DEBF0FBECDBF9E012F5F3F4F790180E0F4
:1001800091E0F9019C01119221503040E1F710E01B
:10019000C12CDD24D3940E9439018A3079F08D304E
:1001A00069F0F701E10FF11D80831F5FF701E10F97
:1001B000F11D10820E9439018A3089F7C7010E941F
:1001C0007D05F7019601119221503040E1F710E0D2
:1001D000E2CF1F920F920FB60F9211240BB60F921F
:1001E0008F939F93EF93FF938091C600E0914B080C
:1001F000EF5FE0934B0890914A08F0E0E45BF74F23
:100200008083FF91EF919F918F910F900BBE0F9084
:100210000FBE0F901F9018951F920F920FB60F925E
:1002200011240BB60F928F939F93EF93FF939091AE
:100230004904809148049817B1F0E0914804EF5FB9
:10024000E0934804F0E0E65BFB4F80818093C600BA
:10025000FF91EF919F918F910F900BBE0F900FBE6A
:100260000F901F9018958091C1008F7D8093C100E1
:10027000EFCFF89490914A0880914B081F929F937A
:100280001F928F9382E192E09F938F930E940909BE
:1002900078940F900F900F900F900F900F90909177
:1002A0004B0880914A089817D1F3E0914A08EF5F14
:1002B000E0934A08F0E0E45BF74F808108952091D5
:1002C00049042F5F909148042917E1F3E22FF0E0F1
:1002D000E65BFB4F8083209349048091C1008062DC
:1002E0008093C1000895FC0130813323C1F0DC010B
:1002F0001196209149042F5F909148042917E1F34A
:10030000E22FF0E0E65BFB4F3083209349049091AD
:10031000C10090629093C1003D913111EACF0895E0
:100320009093C5008093C40086E08093C20088E962
:100330008093C10010924A0810924B081092480412
:100340001092490408959091C00095FFFCCF8093CE
:10035000C60008958091C00087FFFCCF8091C60041
:1003600008958091C000881F8827881F0895FC0188
:100370002081222351F031969091C00095FFFCCF4F
:100380002093C60021912111F7CF08958A3049F0BA
:100390009091C00095FFFCCF8093C60080E090E074
:1003A00008959091C00095FFFCCF9DE09093C6000A
:1003B000EFCF1092C50082E38093C40086E0809363
:1003C000C20088E98093C10010924A0810924B083D
:1003D000109248041092490408951092C50082E3D7
:1003E0008093C40086E08093C20088E98093C100B6
:1003F00010924A0810924B08109248041092490437
:1004000008957894A091510CB091520C109789F0F6
:100410001296ED91FC911397309759F014966D91C7
:100420007D918D919C9117971995A091510CB09148
:10043000520C81E052968C9308950F931F93FC0108
:10044000538342830483158326833783138612865E
:100450001186108682E0828B81E092E0DB018C9332
:1004600011979C9311971C9211971C9211971C92B3
:1004700011971C9211971C9211971C9211971C9224
:1004800011971C9211971C9211971C9211971C9214
:1004900011971C9211971C9211971C9211971C9204
:1004A00011971C9211971C9211971C9211971C92F4
:1004B00011971C9211971C92675171097183608387
:1004C0001F910F910895CF93DF93FC01A081B1811B
:1004D0001097B1F084818130B9F01896CD91DC91FC
:1004E0001997D183C083DB87CA8784818150848335
:1004F00019961C921E9218971B961C921E921A9780
:10050000CD01DF91CF910895138212821182108262
:10051000EDCFDB011A962D913C911B97232B11F007
:100520008FEF089518962D913C911997232BC1F7C1
:10053000FC012481211115C0718360837383628360
:100540001B967C936E931A9719961C921E9218977D
:10055000DC0114962C9114972F5F14962C9380E055
:1005600008950280F381E02D71876087DB011B967F
:10057000FC93EE931A9719961C921E921897FC0101
:1005800073836283E5CF0F931F93CF93DF93FC01B7
:10059000C081D18180E292E00E941D092097E9F09C
:1005A00004E312E089858F9388858F938B858F93E1
:1005B0008A858F93DF93CF931F930F930E9409092E
:1005C0000884D985C02DEDB7FEB738960FB6F894DC
:1005D000FEBF0FBEEDBF209729F78BE292E0DF91BF
:1005E000CF911F910F910C941D092F923F924F9222
:1005F0005F926F927F928F929F92AF92BF92CF92B3
:10060000DF92EF92FF920F931F93CF93DF930BB67E
:100610000F920CB60F920DB71EB7C82FD92F0883B3
:100620001983C62FD72F088119810DBF1EBF0F90C8
:100630000CB60F900BB6DF91CF911F910F91FF90E9
:10064000EF90DF90CF90BF90AF909F908F907F9072
:100650006F905F904F903F902F900895C82FD92FA3
:10066000088119810DBF1EBF0F900CB60F900BB6FD
:10067000DF91CF911F910F91FF90EF90DF90CF907E
:10068000BF90AF909F908F907F906F905F904F90B2
:100690003F902F9018958AE698E190938900809377
:1006A000880082E080936F008CE080938100089541
:1006B0001F920F920FB60F9211240BB60F922F9329
:1006C0003F934F935F936F937F938F939F93AF93DA
:1006D000BF93EF93FF930E949503FF91EF91BF911A
:1006E000AF919F918F917F916F915F914F913F91CA
:1006F0002F910F900BBE0F900FBE0F901F9018956B
:10070000F8948CE49CE00E9463029093520C8093D6
:10071000510C892B41F00E944B038091510C909118
:10072000520C0C942E030E94A608CF93DF93C09125
:10073000510CD091520CBE018CE49CE00E948902C5
:100740008CE49CE00E9463029093520C8093510CC5
:10075000C817D90731F0BC01CE01DF91CF910C94BD
:10076000F502DF91CF91089580910101806380931C
:100770000101809102018F7E80930201809102012C
:100780008062809302019D9AA598269A2E98609186
:10079000550C87E090E041E050E015C02091020147
:1007A000206220930201A59AEFEDFEE23197F1F766
:1007B00000C00000A598EFEDFEE23197F1F700C010
:1007C0000000019770F09A01082E01C0220F0A94D0
:1007D000EAF7262319F7209102012F7D20930201C9
:1007E000E2CF2E9A8FED9EE20197F1F700C0000054
:1007F0002E98EFEDFEE23197F1F700C000008091F6
:1008000002018F7E809302010895A59A8FED9EE2EA
:100810000197F1F700C00000A5988FED9EE20197C7
:10082000F1F700C0000008952E9A8FED9EE2019727
:10083000F1F700C000002E988FED9EE20197F1F7CE
:1008400000C00000089527E030E061E070E014C0CF
:10085000906290930201A59AEFEDFEE23197F1F7D5
:1008600000C00000A598EFEDFEE23197F1F700C05F
:1008700000002150310978F0AB01022E01C0440F75
:100880000A94EAF74823909102014111E1CF9F7D3C
:1008900090930201E0CF2E9A8FED9EE20197F1F73F
:1008A00000C000002E98EFEDFEE23197F1F700C096
:1008B0000000809102018F7E809302010895409193
:1008C000550C813041F4613009F446C008F449C048
:1008D000623009F43CC087E090E061E070E015C050
:1008E00020910201206220930201A59AEFEDFEE221
:1008F0003197F1F700C00000A598EFEDFEE23197C7
:10090000F1F700C00000019770F09B01082E01C0B4
:10091000220F0A94EAF7242319F7209102012F7D70
:1009200020930201E2CF2E9A8FED9EE20197F1F71C
:1009300000C000002E98EFEDFEE23197F1F700C005
:100940000000809102018F7E809302010895407F14
:1009500048604093550CBFCF407F44604093550C96
:10096000BACF407F4C604093550CB5CFA091860024
:10097000B0918700282F30E00E94970824E630E0ED
:1009800040E050E00E947508E9E8F0E03083A8E814
:10099000B0E02C938C9180810895A0918600B09155
:1009A0008700262F30E00E94970824E630E040E0E0
:1009B00050E00E947508E9E8F0E03083A8E8B0E074
:1009C0002C938C9180810895259A82EC80938000ED
:1009D0008AE180938100E6E8F0E08FE19EE4918374
:1009E000808380819181E9E8F0E01082A8E8B0E09E
:1009F0001C928C91808108958AB18C7F8AB98BB1C9
:100A000083608BB9E9E6F0E0808183608083E89AB7
:100A100008951F920F920FB60F9211248F939F93F8
:100A20008091530C9091540C01969093540C8093A8
:100A3000530C9F918F910F900FBE0F901F901895A0
:100A4000413099F058F0423041F481E080935C0CE1
:100A500070935E0C60935D0C0895089510925C0C89
:100A600010925E0C10925D0C089540935C0C709394
:100A70005E0C60935D0C0895EF92FF920F931F93AD
:100A8000CF93DF930097C1F07C018C01C0E0D0E0F0
:100A900009C0F801808190E00E94C908F8018193A3
:100AA0008F012196F70101900020E9F73197EE19A7
:100AB000FF09CE17DF0768F3DF91CF911F910F91E8
:100AC000FF90EF9008950097A9F0DC010D900020B1
:100AD000E9F7FC01CD01019707C0219130E02053D7
:100AE00031092A30310530F4E817F907B1F781E010
:100AF00090E0089580E090E00895AF92BF92CF9289
:100B0000DF92EF92FF920F931F93CF93DF93CDB7B6
:100B1000DEB7C250D1400FB6F894DEBF0FBECDBFD6
:100B2000AE014F5F5E4F6AE472E00E94DA088C010A
:100B30000E943C05C8010E9473016CE472E0C80188
:100B40000E94D108892B09F489C061E772E0C801CD
:100B50000E94D108892B09F4BFC060E073E0C8018E
:100B60000E94D108892B09F4D1C061E473E0C80167
:100B70000E94D108892B09F052C0AE014F5F5E4F31
:100B80006AE472E080E090E00E94DA088C010E9442
:100B90007301C8010E946305892B09F4B3C0C80121
:100BA0000E94AB08F82EAE014F5F5E4F6AE472E020
:100BB00080E090E00E94DA088C010E946305892B96
:100BC00009F4FFC0C8010E947301C8010E94AB086C
:100BD0006C01AE014F5F5E4F6AE472E080E090E02E
:100BE0000E94DA088C0167E772E00E94D108892B25
:100BF00009F4FCC06FE772E0C8010E94D108892B9C
:100C000009F4D9C068E872E0C8010E94D108892BB4
:100C100031F440E0B6018F2D0E9420050DC085E320
:100C2000E0E9F2E0DE01119601900D928A95E1F77C
:100C3000CE0101960E947301CE5FDE4F0FB6F8948D
:100C4000DEBF0FBECDBFDF91CF911F910F91FF90FF
:100C5000EF90DF90CF90BF90AF90089580E1E1E5F5
:100C6000F2E09E012F5F3F4F7901D90101900D9273
:100C70008A95E1F7C9010E94730100E012E088E063
:100C8000A82E82E0B82E91E6C92E92E0D92EF80166
:100C9000808191810E5F1F4F9F938F93DF92CF9240
:100CA000FF92EF920E944D09C7010E9473010F90BD
:100CB0000F900F900F900F900F90A016B10639F77C
:100CC0008CE0E5E6F2E0D70101900D928A95E1F71C
:100CD000C7010E947301B0CFAE014F5F5E4F6AE45F
:100CE00072E080E090E00E94DA088C010E947301BB
:100CF000C8010E946305892B29F0C8010E94AB0836
:100D0000F82E32C08BE3E5ECF2E08CCFAE014F5F02
:100D10005E4F6AE472E080E090E00E94DA088C01A5
:100D20000E947301C8010E946305892B59F3C80111
:100D30000E94AB08F82EAE014F5F5E4F6AE472E08E
:100D400080E090E00E94DA088C010E946305892B04
:100D500009F443C0C8010E947301C8010E94AB0896
:100D6000BC018F2D0E94CD04AE014F5F5E4F6AE43F
:100D700072E080E090E00E94DA088C010E943C055D
:100D800067E772E0C8010E94D108892BF1F06FE794
:100D900072E0C8010E94D108892B19F168E872E05D
:100DA000C8010E94D108892B09F039CF60E08F2D4E
:100DB0000E945F0441CF42E0B6018F2D0E942005C2
:100DC0003BCF86E3EAE4F3E02DCFC8010E94730134
:100DD00061E08F2D0E945F042FCF88E3E9E0F3E00C
:100DE00021CF62E08F2D0E945F0426CFC8010E94B0
:100DF000730141E0B6018F2D0E9420051DCF1F9287
:100E00000F920FB60F9211248F939F93AF93BF93BE
:100E10008091560C9091570CA091580CB091590CA0
:100E20000196A11DB11D8093560C9093570CA09371
:100E3000580CB093590C9BB184E089278BB9BF91B2
:100E4000AF919F918F910F900FBE0F901F901895AB
:100E50001092200182E08093210181E08093730051
:100E6000109225011092240178940895F8948091AD
:100E7000560C9091570CA091580CB091590C2091A0
:100E8000240130912501D09B07C02F3F4FEF34073D
:100E900019F00196A11DB11D7894DC0199278827CE
:100EA000820F931FA11DB11DB695A79597958795A4
:100EB000BC01CD019F7008951F920F920FB60F9243
:100EC00011240BB60F920F931F932F933F934F93C1
:100ED0005F936F937F938F939F93AF93BF93EF93A2
:100EE000FF93CF93DF93CDB7DEB7DA95DEBFCDBFEB
:100EF0004091530C5091540C80915A0C90915B0C82
:100F0000481B590BFA01EE0FFF1FEE0FFF1FE40FF6
:100F1000F51F9F01A9E8B8E80E9497089695879564
:100F200096958795969587959F938F93FF93EF93CB
:100F30005F934F931F9285E08F9386E194E09F9398
:100F40008F938E010F5F1F4F1F930F930E944D09C8
:100F50008091530C9091540C90935B0C80935A0C9D
:100F6000C8010E9473010FB6F894DEBF0FBECDBF5B
:100F7000D3950FB6F894DEBF0FBECDBFDF91CF91F2
:100F8000FF91EF91BF91AF919F918F917F916F9161
:100F90005F914F913F912F911F910F910F900BBE39
:100FA0000F900FBE0F901F9018951092A0008DE02B
:100FB0008093A10088E09DE39093A9008093A8000E
:100FC00082E08093720008950F931F93CF93DF9375
:100FD000CDB7DEB7DA950FB6F894DEBF0FBECDBF42
:100FE00080915C0C81112EC08091540C8F93809164
:100FF000530C8F938DE394E09F938F938E010F5F3B
:101000001F4F1F930F930E944D09C8010E94730147
:101010009FEF23ED80E3915020408040E1F700C036
:1010200000000F900F900F900F900F900F90D3959E
:101030000FB6F894DEBF0FBECDBFDF91CF911F91E9
:101040000F9108958FE99FE00197F1F700C000002C
:10105000EECF0F931F930E94ED010E94B4030E94F4
:10106000E4040E94FC040E9428070E94D50700E0C7
:1010700010E098014DE950E064E071E185E091E114
:101080000E941D0200E010E0980147EA50E06EE582
:1010900070E182E790E10E941D0200E010E09801FB
:1010A00041EB50E067E175E18FE590E10E941D02A0
:1010B00062E770E18CE49CE00E9489026FE570E1D8
:1010C0008CE49CE00E94890265E071E18CE49CE084
:1010D0000E94890288E092E00E94B7010E9480038A
:1010E00080E090E01F910F910895A1E21A2EAA1BB3
:1010F000BB1BFD010DC0AA1FBB1FEE1FFF1FA217C8
:10110000B307E407F50720F0A21BB30BE40BF50BC4
:10111000661F771F881F991F1A9469F7609570954D
:10112000809590959B01AC01BD01CF010895A29FD0
:10113000B001B39FC001A39F700D811D1124911DAB
:10114000B29F700D811D1124911D089581E090E0E2
:10115000F8940C94360CFC0188279927E894219187
:101160002032E9F3293010F02E30C8F32B3241F051
:101170002D3239F4689404C00E940109820F911D38
:10118000219120532A30C0F31EF4909581959F4FF2
:1011900008959111089581548A5108F4805E855A0A
:1011A0000895FB01DC018D91019080190110D9F3A4
:1011B000990B0895FA01A191B081009719F4109745
:1011C000E1F0CD01DC01CD010D90002011F4C00152
:1011D00013C0FB012191222319F02015D9F7F3CF79
:1011E000FB012191201519F41E92119606C02223AD
:1011F000C1F70D900020A1F7D001FA01A193B083AF
:1012000008957AE0979F902D879F802D910D11244E
:101210000895CF93DF93CDB7DEB7AE014A5F5F4F3E
:10122000FA0161917191AF0180911A1590911B158E
:101230000E947C09DF91CF9108950F931F93CF9364
:10124000DF93E0911A15F0911B15238121FF1BC03C
:101250008C01D0E0C0E0F80181918F0160911A15F6
:1012600070911B15DB011896ED91FC91199788235D
:1012700031F01995892B79F3DFEFCFEFECCF8AE0CE
:101280001995892B19F08FEF9FEF02C08D2F9C2F9E
:10129000DF91CF911F910F9108950F931F93CF93DB
:1012A000DF93CDB7DEB72E970FB6F894DEBF0FBE33
:1012B000CDBF0E891F8986E08C831A8309838FEF47
:1012C0009FE79E838D83AE01465E5F4F688D798D6B
:1012D000CE0101960E947C09EF81F885E00FF11F95
:1012E00010822E960FB6F894DEBF0FBECDBFDF91F1
:1012F000CF911F910F9108952F923F924F925F923D
:101300006F927F928F929F92AF92BF92CF92DF9215
:10131000EF92FF920F931F93CF93DF93CDB7DEB77A
:101320002B970FB6F894DEBF0FBECDBF6C017B01CB
:101330008A01FC0117821682838181FFCCC1CE0114
:1013400001963C01F6019381F70193FD859193FF8E
:1013500081917F01882309F4BAC1853239F493FD64
:10136000859193FF81917F01853229F4B60190E048
:101370000E949C0BE7CF912C212C312CFFE1F3151F
:10138000D8F08B3279F038F4803279F08332A1F4DE
:10139000232D20611DC08D3261F0803369F4232D2F
:1013A000216016C0832D8260382EE32DE4603E2E2E
:1013B0002AC0F32DF8601DC037FC2DC020ED280F8A
:1013C0002A3040F08E32B9F436FC81C1232D2064DE
:1013D000322E19C036FE06C08AE0989E200D1124D8
:1013E000922E11C0EAE02E9E200D1124222EF32D04
:1013F000F0623F2E08C08C3621F4832D8068382E91
:1014000002C0883641F4F70193FD859193FF8191E5
:101410007F018111B3CF982F9F7D9554933028F48D
:101420000C5F1F4F9FE399830DC0833631F08337E4
:1014300071F0833509F059C021C0F801808189839A
:101440000E5F1F4F88248394912C530113C02801F1
:10145000F2E04F0E511CF801A080B18036FE03C0AF
:10146000692D70E002C06FEF7FEFC5010E94910B04
:101470004C018201F32DFF773F2E16C0280122E098
:10148000420E511CF801A080B18036FE03C0692DC8
:1014900070E002C06FEF7FEFC5010E94860B4C0128
:1014A000F32DF0683F2E820133FC1BC0822D90E0AB
:1014B00088169906B0F4B60180E290E00E949C0B79
:1014C0002A94F4CFF50137FC859137FE81915F01B5
:1014D000B60190E00E949C0B21102A9421E0821A10
:1014E00091088114910471F7E8C0843611F08936AF
:1014F00041F5F80137FE07C06081718182819381D7
:101500000C5F1F4F08C060817181072E000C880B93
:10151000990B0E5F1F4FF32DFF763F2E97FF09C0EB
:1015200090958095709561957F4F8F4F9F4FF06894
:101530003F2E2AE030E0A3010E94D80B882E8618A7
:1015400045C0853731F4232D2F7EB22E2AE030E0BE
:1015500025C0932D997FB92E8F36C1F018F48835A8
:1015600079F0B5C0803719F0883721F0B0C0E92F85
:10157000E061BE2EB4FE0DC0FB2DF460BF2E09C08D
:1015800034FE0AC0292F2660B22E06C028E030E0C3
:1015900005C020E130E002C020E132E0F801B7FEF2
:1015A00007C060817181828193810C5F1F4F06C0EB
:1015B0006081718180E090E00E5F1F4FA3010E9467
:1015C000D80B882E8618FB2DFF773F2E36FE0DC0D8
:1015D000232D2E7FA22E891458F434FE0BC032FC2A
:1015E00009C0832D8E7EA82E05C0B82CA32C03C065
:1015F000B82C01C0B92CA4FE0FC0FE01E80DF11DEE
:101600008081803321F49A2D997EA92E09C0A2FEF3
:1016100006C0B394B39404C08A2D867809F0B394BD
:10162000A3FC11C0A0FE06C0B21488F4280C922CB2
:101630009B180EC0B21460F4B60180E290E00E94E4
:101640009C0BB394F7CFB21418F42B1802C0982C4B
:10165000212CA4FE10C0B60180E390E00E949C0BF8
:10166000A2FE17C0A1FC03C088E790E002C088E595
:1016700090E0B6010CC08A2D867859F0A1FE02C018
:101680008BE201C080E2A7FC8DE2B60190E00E94EF
:101690009C0B891438F4B60180E390E00E949C0B07
:1016A0009A94F7CF8A94F301E80DF11D8081B60179
:1016B00090E00E949C0B8110F5CF222009F442CECD
:1016C000B60180E290E00E949C0B2A94F6CFF601CE
:1016D0008681978102C08FEF9FEF2B960FB6F8940B
:1016E000DEBF0FBECDBFDF91CF911F910F91FF9055
:1016F000EF90DF90CF90BF90AF909F908F907F90B2
:101700006F905F904F903F902F900895FC0105904F
:10171000615070400110D8F7809590958E0F9F1FF3
:101720000895FC016150704001900110D8F7809538
:1017300090958E0F9F1F08950F931F93CF93DF9364
:10174000FB01238121FD03C08FEF9FEF2CC022FFFF
:1017500016C046815781248135814217530744F4CE
:10176000A081B1819D012F5F3F4F318320838C93F6
:10177000268137812F5F3F4F3783268314C08B012B
:10178000EC01FB010084F185E02D1995892BE1F630
:10179000D80116968D919C911797019617969C9358
:1017A0008E931697CE01DF91CF911F910F910895DF
:1017B000FA01AA27283051F1203181F1E8946F9382
:1017C0006E7F6E5F7F4F8F4F9F4FAF4FB1E03ED028
:1017D000B4E03CD0670F781F891F9A1FA11D680FC6
:1017E000791F8A1F911DA11D6A0F711D811D911DF9
:1017F000A11D20D009F468943F912AE0269F11246E
:101800003019305D3193DEF6CF010895462F4770D1
:10181000405D4193B3E00FD0C9F7F6CF462F4F702C
:10182000405D4A3318F0495D31FD4052419302D08A
:10183000A9F7EACFB4E0A695979587957795679530
:10184000BA95C9F700976105710508959B01AC0130
:101850000A2E06945795479537952795BA95C9F757
:10186000620F731F841F951FA01D0895F894FFCF6A
:101870004C028003A303DE037374617274696E67A4
:101880000A00483A20256420543A202564200A00A2
:1018900073746172742D6C69737400656E642D6C61
:1018A000697374005B633A2025702C20703A202500
:1018B000702C206E3A2025705D0A200068656C70DF
:1018C000004C6973746120636F6D616E64693A0ADC
:1018D0000025730A0046696E65204C697374610ABD
:1018E000006D6F746F7200666F7277617264006270
:1018F00061636B776172640072656C65617365002A
:10190000436F6D616E646F206E6F6E2076616C69DF
:10191000646F2C207365207365727665206169752C
:10192000746F207363726976657265202768656CD1
:101930007027200A004E756D65726F206D6F746F91
:101940007265206E6F6E2076616C69646F2C2073F7
:101950006520736572766520616975746F207363A5
:10196000726976657265202768656C7027200A00A9
:101970006D6F746F7270776D006475747920637920
:10198000636C65206E6F6E2076616C69646F2C20CD
:10199000736520736572766520616975746F207355
:1019A00063726976657265202768656C7027200A06
:1019B000006D6F746F7272706D0072706D76616C15
:1019C0007565206E6F6E2076616C69646F2C207374
:1019D0006520736572766520616975746F20736325
:1019E000726976657265202768656C7027200A0029
:1019F0006D6F746F722031205B666F7277617264F5
:101A00002F6261636B776172642F72656C656173BD
:101A1000655D006D6F746F7270776D203120647535
:101A200074796379636C65205B30202E2E20313011
:101A3000305D205B666F72776172642F6261636BE9
:101A4000776172642F72656C656173655D006D6F9F
:101A5000746F7272706D20312072706D76616C756A
:101A600065205B302E2E3430305D205B666F7277E0
:101A70006172642F6261636B776172642F72656C4F
:101A8000656173655D00636F6E763A20257520632E
:101A90006E743A2025752072706D3A20257520727B
:101AA000706D20676561723A2025750A00636E7457
:081AB0003A202575200A000010
:00000001FF
