:100000000C947A000C949B000C949B000C949B0025
:100010000C949B000C949B000C949B000C949B00F4
:100020000C949B000C949B000C949B000C949B00E4
:100030000C949B000C949B000C949B000C949B00D4
:100040000C949B000C944F030C949B000C949B000D
:100050000C949B000C949B000C949B000C949B00B4
:100060000C949B000C94E0000C9403010C949B00F6
:100070000C949B000C949B000C949B000C949B0094
:100080000C949B000C949B000C949B000C949B0084
:100090000C949B000C949B000C949B000C949B0074
:1000A0000C949B000C949B000C949B000C949B0064
:1000B0000C949B000C949B000C949B000C949B0054
:1000C0000C949B000C949B000C949B000C949B0044
:1000D0000C949B000C949B000C949B000C949B0034
:1000E0000C949B000C94F8010C949D000C94B100AE
:1000F0000C94A70011241FBECFEFD1E2DEBFCDBF0D
:1001000000E00CBF15E0A0E0B2E0E2E5F8E100E0BD
:100110000BBF02C007900D92AE39B107D9F720E1AD
:10012000AEE9B5E001C01D92A936B207E1F70E9421
:10013000B5060C94270C0C9400002FEF83E294EF8B
:10014000215080409040E1F700C00000F6CF2FEF33
:1001500083ED90E3215080409040E1F700C0000023
:10016000F6CFCF93DF93CDB7DEB7DA950FB6F8941D
:10017000DEBF0FBECDBF9E012F5F3F4F790180E0F4
:1001800091E0F9019C01119221503040E1F710E01B
:100190000E9430018A3079F08D3069F0F701E10F6B
:1001A000F11D80831F5FF701E10FF11D10820E9496
:1001B00030018A3089F7C7010E946E0510E0E8CF50
:1001C0001F920F920FB60F9211240BB60F928F93BE
:1001D0009F93EF93FF938091C600E091A106EF5F9C
:1001E000E093A1069091A006F0E0EE55F94F8083D0
:1001F000FF91EF919F918F910F900BBE0F900FBECB
:100200000F901F9018951F920F920FB60F92112406
:100210000BB60F928F939F93EF93FF9390919F054F
:1002200080919E059817B1F0E0919E05EF5FE093F5
:100230009E05F0E0E056FA4F80818093C600FF9162
:10024000EF919F918F910F900BBE0F900FBE0F906B
:100250001F9018958091C1008F7D8093C100EFCFD2
:10026000F8949091A0068091A1061F929F931F92EF
:100270008F938AE192E09F938F930E94FA0878947B
:100280000F900F900F900F900F900F909091A106EC
:100290008091A0069817D1F3E091A006EF5FE0935C
:1002A000A006F0E0EE55F94F8081089520919F055A
:1002B0002F5F90919E052917E1F3E22FF0E0E056C1
:1002C000FA4F808320939F058091C10080628093C4
:1002D000C1000895FC0130813323C1F0DC01119687
:1002E00020919F052F5F90919E052917E1F3E22F42
:1002F000F0E0E056FA4F308320939F059091C100C3
:1003000090629093C1003D913111EACF089590938E
:10031000C5008093C40086E08093C20088E9809382
:10032000C1001092A0061092A10610929E05109294
:100330009F0508959091C00095FFFCCF8093C60063
:1003400008958091C00087FFFCCF8091C60008957A
:100350008091C000881F8827881F0895FC01208194
:10036000222351F031969091C00095FFFCCF20934D
:10037000C60021912111F7CF08958A3049F090915C
:10038000C00095FFFCCF8093C60080E090E0089508
:100390009091C00095FFFCCF9DE09093C600EFCFF9
:1003A0001092C50082E38093C40086E08093C2006F
:1003B00088E98093C1001092A0061092A1061092C5
:1003C0009E0510929F0508951092C50082E38093C8
:1003D000C40086E08093C20088E98093C100109237
:1003E000A0061092A10610929E0510929F050895F6
:1003F0007894A091A707B091A807109789F012965A
:10040000ED91FC911397309759F014966D917D9171
:100410008D919C9117971995A091A707B091A80766
:1004200081E052968C9308950F931F93FC015383A0
:1004300042830483158326833783138612861186AD
:10044000108682E0828B88EF91E0DB018C9311971C
:100450009C9311971C9211971C9211971C921197C3
:100460001C9211971C9211971C9211971C92119734
:100470001C9211971C9211971C9211971C92119724
:100480001C9211971C9211971C9211971C92119714
:100490001C9211971C9211971C9211971C92119704
:1004A0001C9211971C9267517109718360831F918F
:1004B0000F910895CF93DF93FC01A081B181109734
:1004C000B1F084818130B9F01896CD91DC91199703
:1004D000D183C083DB87CA87848181508483199646
:1004E0001C921E9218971B961C921E921A97CD0171
:1004F000DF91CF9108951382128211821082EDCF85
:10050000DB011A962D913C911B97232B11F08FEF55
:10051000089518962D913C911997232BC1F7FC0152
:100520002481211115C071836083738362831B96BC
:100530007C936E931A9719961C921E921897DC0161
:1005400014962C9114972F5F14962C9380E00895A5
:100550000280F381E02D71876087DB011B96FC939D
:10056000EE931A9719961C921E921897FC017383AA
:100570006283E5CF0F931F93CF93DF93FC01C0817C
:10058000D18188E292E00E940E092097E9F00CE305
:1005900012E089858F9388858F938B858F938A85C9
:1005A0008F93DF93CF931F930F930E94FA080884D1
:1005B000D985C02DEDB7FEB738960FB6F894FEBFBB
:1005C0000FBEEDBF209729F783E392E0DF91CF9133
:1005D0001F910F910C940E092F923F924F925F92B0
:1005E0006F927F928F929F92AF92BF92CF92DF9243
:1005F000EF92FF920F931F93CF93DF930BB60F925F
:100600000CB60F920DB71EB7C82FD92F08831983C8
:10061000C62FD72F088119810DBF1EBF0F900CB6B2
:100620000F900BB6DF91CF911F910F91FF90EF903C
:10063000DF90CF90BF90AF909F908F907F906F9002
:100640005F904F903F902F900895C82FD92F088129
:1006500019810DBF1EBF0F900CB60F900BB6DF9126
:10066000CF911F910F91FF90EF90DF90CF90BF90AF
:10067000AF909F908F907F906F905F904F903F9042
:100680002F9018958AE698E19093890080938800CE
:1006900082E080936F008CE08093810008951F9228
:1006A0000F920FB60F9211240BB60F922F933F9318
:1006B0004F935F936F937F938F939F93AF93BF936A
:1006C000EF93FF930E948C03FF91EF91BF91AF9145
:1006D0009F918F917F916F915F914F913F912F915A
:1006E0000F900BBE0F900FBE0F901F901895F894AF
:1006F00082EA97E00E945A029093A8078093A70786
:10070000892B41F00E9442038091A7079091A8078E
:100710000C9425030E949708CF93DF93C091A707FD
:10072000D091A807BE0182EA97E00E94800282EA87
:1007300097E00E945A029093A8078093A707C817D2
:10074000D90731F0BC01CE01DF91CF910C94EC02BE
:10075000DF91CF9108958091010180638093010121
:10076000809102018F7E809302018091020180625C
:10077000809302019D9AA598269A2E986091A907C8
:1007800087E090E041E050E015C020910201206236
:1007900020930201A59AEFEDFEE23197F1F700C038
:1007A0000000A598EFEDFEE23197F1F700C00000E0
:1007B000019770F09A01082E01C0220F0A94EAF7FF
:1007C000262319F7209102012F7D20930201E2CF09
:1007D0002E9A8FED9EE20197F1F700C000002E984F
:1007E000EFEDFEE23197F1F700C0000080910201C9
:1007F0008F7E809302010895A59A8FED9EE2019766
:10080000F1F700C00000A5988FED9EE20197F1F787
:1008100000C0000008952E9A8FED9EE20197F1F737
:1008200000C000002E988FED9EE20197F1F700C006
:100830000000089527E030E061E070E014C09062AD
:1008400090930201A59AEFEDFEE23197F1F700C017
:100850000000A598EFEDFEE23197F1F700C000002F
:100860002150310978F0AB01022E01C0440F0A94E7
:10087000EAF74823909102014111E1CF9F7D9093C7
:100880000201E0CF2E9A8FED9EE20197F1F700C0B2
:1008900000002E98EFEDFEE23197F1F700C0000066
:1008A000809102018F7E8093020108954091A907F3
:1008B000813041F4613009F446C008F449C0623027
:1008C00009F43CC087E090E061E070E015C0209141
:1008D0000201206220930201A59AEFEDFEE231971A
:1008E000F1F700C00000A598EFEDFEE23197F1F7B7
:1008F00000C00000019770F09B01082E01C0220F7C
:100900000A94EAF7242319F7209102012F7D2093FE
:100910000201E2CF2E9A8FED9EE20197F1F700C01F
:1009200000002E98EFEDFEE23197F1F700C00000D5
:10093000809102018F7E809302010895407F48607C
:100940004093A907BFCF407F44604093A907BACF27
:10095000407F4C604093A907B5CF259A82E28093EF
:1009600080008AE180938100E6E8F0E08FE19EE478
:10097000918380836081718180E090E00E949C0778
:1009800020E030E0A9010E942A080E946D077093C0
:100990008B0060938A000895CF92DF92EF92FF92CE
:1009A000CF93DF93C0918600D0918700682F70E0CD
:1009B00080E090E00E949E0720E030E048EC52E4A6
:1009C0000E94FB066B017C01BE0180E090E00E946A
:1009D0009C079B01AC01C701B6010E942A080E9436
:1009E0006D0770938B0060938A00DF91CF91FF9029
:1009F000EF90DF90CF900895CF92DF92EF92FF9229
:100A0000CF93DF93C0918600D09187007727072E80
:100A1000000C880B990B0E949E0720E030E048EC08
:100A200052E40E94FB066B017C01BE0180E090E075
:100A30000E949C079B01AC01C701B6010E942A08D5
:100A40000E946D0770938B0060938A00DF91CF91B5
:100A5000FF90EF90DF90CF900895EF92FF920F9369
:100A60001F93CF93DF930097C1F07C018C01C0E00E
:100A7000D0E009C0F801808190E00E94BA08F80136
:100A800081938F012196F70101900020E9F73197BA
:100A9000EE19FF09CE17DF0768F3DF91CF911F91A1
:100AA0000F91FF90EF9008950097A9F0DC010D9051
:100AB0000020E9F7FC01CD01019707C0219130E04A
:100AC000205331092A30310530F4E817F907B1F71E
:100AD00081E090E0089580E090E00895AF92BF92A9
:100AE000CF92DF92EF92FF920F931F93CF93DF93FA
:100AF000CDB7DEB7C250D1400FB6F894DEBF0FBEFF
:100B0000CDBFAE014F5F5E4F62E572E00E94CB0841
:100B10008C010E942D05C8010E946A0164E572E003
:100B2000C8010E94C208892B09F495C069E772E0E8
:100B3000C8010E94C208892BA9F168E073E0C801CE
:100B40000E94C208892B09F4C8C069E473E0C80197
:100B50000E94C208892B09F05FC0AE014F5F5E4F53
:100B600062E572E080E090E00E94CB088C010E9478
:100B70006A01C8010E945405892B09F4AAC0AE017C
:100B80004F5F5E4F62E572E080E090E00E94CB082C
:100B90008C010E945405892B09F4CDC0C8010E9424
:100BA0006A0147C0AE014F5F5E4F62E572E080E0D0
:100BB00090E00E94CB088C010E946A01C8010E944B
:100BC0005405892B09F485C0C8010E949C08F82EA1
:100BD000AE014F5F5E4F62E572E080E090E00E9400
:100BE000CB088C010E942D056FE772E0C8010E94BE
:100BF000C208892B09F4ACC067E872E0C8010E9402
:100C0000C208892B09F4ACC060E972E0C8010E94F7
:100C1000C208892B09F497C085E3E8E9F2E0DE0118
:100C2000119601900D928A95E1F7CE0101960E94EE
:100C30006A01CE5FDE4F0FB6F894DEBF0FBECDBFA8
:100C4000DF91CF911F910F91FF90EF90DF90CF90A8
:100C5000BF90AF90089580E1E9E5F2E09E012F5F3B
:100C60003F4F7901D90101900D928A95E1F7C901B1
:100C70000E946A0100E012E080E1A82E82E0B82E16
:100C800099E6C92E92E0D92EF801808191810E5FFC
:100C90001F4F9F938F93DF92CF92FF92EF920E940C
:100CA0003E09C7010E946A010F900F900F900F90AC
:100CB0000F900F90A016B10639F78CE0EDE6F2E048
:100CC000D70101900D928A95E1F7C7010E946A0150
:100CD000B0CF8BE3EDECF2E0A2CFAE014F5F5E4F01
:100CE00062E572E080E090E00E94CB088C010E94F7
:100CF0006A01C8010E945405892B59F3C8010E945A
:100D00009C087C01AE014F5F5E4F62E572E080E0BF
:100D100090E00E94CB088C010E945405892B79F049
:100D2000C8010E946A01C8010E949C08BC01C70159
:100D30000E94FC047ECF86E3E2E5F3E070CF88E317
:100D4000E1E1F3E06CCF60E08F2D0E94560471CF9B
:100D5000C8010E946A0161E08F2D0E94560469CF8C
:100D600062E08F2D0E94560464CF0F931F930E9460
:100D7000E4010E94AB030E94AD0400E010E0980182
:100D80004DE950E06FE47CE080E59CE00E941402B5
:100D900000E010E0980147EA50E069EA7BE08DEB63
:100DA0009BE00E94140200E010E0980141EB50E04B
:100DB00062E670E18AEA9BE00E9414026DEB7BE040
:100DC00082EA97E00E9480026AEA7BE082EA97E08A
:100DD0000E94800260E57CE082EA97E00E94800247
:100DE00080E192E00E94AE010E94770380E090E0F3
:100DF0001F910F9108950E940F070C94F0070E9415
:100E0000E90758F00E94E20740F029F45F3F29F01B
:100E10000C94D90751110C9424080C94DF070E94FC
:100E2000010868F39923B1F3552391F3951B550BF2
:100E3000BB27AA2762177307840738F09F5F5F4FAD
:100E4000220F331F441FAA1FA9F335D00E2E3AF0EC
:100E5000E0E832D091505040E695001CCAF72BD004
:100E6000FE2F29D0660F771F881FBB1F2617370755
:100E70004807AB07B0E809F0BB0B802DBF01FF2787
:100E800093585F4F3AF09E3F510578F00C94D90784
:100E90000C9424085F3FE4F3983ED4F3869577954D
:100EA0006795B795F7959F5FC9F7880F911D969540
:100EB000879597F90895E1E0660F771F881FBB1F9C
:100EC000621773078407BA0720F0621B730B840B49
:100ED000BA0BEE1F88F7E09508950E94090888F084
:100EE0009F5798F0B92F9927B751B0F0E1F0660FEE
:100EF000771F881F991F1AF0BA95C9F714C0B1302F
:100F000091F00E942308B1E008950C942308672F04
:100F1000782F8827B85F39F0B93FCCF3869577955D
:100F20006795B395D9F73EF4909580957095619546
:100F30007F4F8F4F9F4F0895E89409C097FB3EF471
:100F400090958095709561957F4F8F4F9F4F992316
:100F5000A9F0F92F96E9BB279395F6958795779594
:100F60006795B795F111F8CFFAF4BB0F11F460FF54
:100F70001BC06F5F7F4F8F4F9F4F16C0882311F0AC
:100F800096E911C0772321F09EE8872F762F05C0C0
:100F9000662371F096E8862F70E060E02AF09A955B
:100FA000660F771F881FDAF7880F9695879597F950
:100FB000089597F99F6780E870E060E008959FEFDB
:100FC00080EC089500240A941616170618060906E0
:100FD000089500240A9412161306140605060895AF
:100FE000092E0394000C11F4882352F0BB0F40F437
:100FF000BF2B11F460FF04C06F5F7F4F8F4F9F4F77
:10100000089557FD9058440F551F59F05F3F71F0F8
:101010004795880F97FB991F61F09F3F79F087955F
:101020000895121613061406551FF2CF4695F1DFE8
:1010300008C0161617061806991FF1CF8695710578
:10104000610508940895E894BB2766277727CB01AC
:1010500097F908950E943D080C94F0070E94E2075A
:1010600038F00E94E90720F0952311F00C94D9077D
:101070000C94DF0711240C9424080E94010870F3DB
:10108000959FC1F3950F50E0551F629FF001729F2D
:10109000BB27F00DB11D639FAA27F00DB11DAA1F3C
:1010A000649F6627B00DA11D661F829F2227B00D89
:1010B000A11D621F739FB00DA11D621F839FA00D14
:1010C000611D221F749F3327A00D611D231F849F64
:1010D000600D211D822F762F6A2F11249F575040BB
:1010E0009AF0F1F088234AF0EE0FFF1FBB1F661F36
:1010F000771F881F91505040A9F79E3F510580F0FF
:101100000C94D9070C9424085F3FE4F3983ED4F381
:10111000869577956795B795F795E7959F5FC1F7A2
:10112000FE2B880F911D9695879597F9089581E07C
:1011300090E0F8940C94270CFC0188279927E894F8
:1011400021912032E9F3293010F02E30C8F32B32F0
:1011500041F02D3239F4689404C00E94F208820FE5
:10116000911D219120532A30C0F31EF49095819552
:101170009F4F08959111089581548A5108F4805E1B
:10118000855A0895FB01DC018D91019080190110B1
:10119000D9F3990B0895FA01A191B081009719F440
:1011A0001097E1F0CD01DC01CD010D90002011F48C
:1011B000C00113C0FB012191222319F02015D9F79A
:1011C000F3CFFB012191201519F41E92119606C050
:1011D0002223C1F70D900020A1F7D001FA01A193BD
:1011E000B08308957AE0979F902D879F802D910D71
:1011F00011240895CF93DF93CDB7DEB7AE014A5FD8
:101200005F4FFA0161917191AF01809165109091EA
:1012100066100E946D09DF91CF9108950F931F937F
:10122000CF93DF93E0916510F0916610238121FF49
:101230001BC08C01D0E0C0E0F80181918F0160916A
:10124000651070916610DB011896ED91FC9119976D
:10125000882331F01995892B79F3DFEFCFEFECCFAD
:101260008AE01995892B19F08FEF9FEF02C08D2F1F
:101270009C2FDF91CF911F910F9108950F931F9392
:10128000CF93DF93CDB7DEB72E970FB6F894DEBFBE
:101290000FBECDBF0E891F8986E08C831A83098318
:1012A0008FEF9FE79E838D83AE01465E5F4F688D13
:1012B000798DCE0101960E946D09EF81F885E00FCE
:1012C000F11F10822E960FB6F894DEBF0FBECDBF71
:1012D000DF91CF911F910F9108952F923F924F92DE
:1012E0005F926F927F928F929F92AF92BF92CF92B6
:1012F000DF92EF92FF920F931F93CF93DF93CDB7BF
:10130000DEB72B970FB6F894DEBF0FBECDBF6C01D2
:101310007B018A01FC0117821682838181FFCCC187
:10132000CE0101963C01F6019381F70193FD859171
:1013300093FF81917F01882309F4BAC1853239F482
:1013400093FD859193FF81917F01853229F4B60148
:1013500090E00E948D0BE7CF912C212C312CFFE1E6
:10136000F315D8F08B3279F038F4803279F083328B
:10137000A1F4232D20611DC08D3261F0803369F40A
:10138000232D216016C0832D8260382EE32DE4606A
:101390003E2E2AC0F32DF8601DC037FC2DC020ED75
:1013A000280F2A3040F08E32B9F436FC81C1232D4B
:1013B0002064322E19C036FE06C08AE0989E200DA9
:1013C0001124922E11C0EAE02E9E200D1124222E0F
:1013D000F32DF0623F2E08C08C3621F4832D8068F7
:1013E000382E02C0883641F4F70193FD859193FFB2
:1013F00081917F018111B3CF982F9F7D95549330B8
:1014000028F40C5F1F4F9FE399830DC0833631F0A2
:10141000833771F0833509F059C021C0F80180810C
:1014200089830E5F1F4F88248394912C530113C02E
:101430002801F2E04F0E511CF801A080B18036FE69
:1014400003C0692D70E002C06FEF7FEFC5010E94FD
:10145000820B4C018201F32DFF773F2E16C028012D
:1014600022E0420E511CF801A080B18036FE03C07C
:10147000692D70E002C06FEF7FEFC5010E94770B0E
:101480004C01F32DF0683F2E820133FC1BC0822DEE
:1014900090E088169906B0F4B60180E290E00E94D0
:1014A0008D0B2A94F4CFF50137FC859137FE81919D
:1014B0005F01B60190E00E948D0B21102A9421E07B
:1014C000821A91088114910471F7E8C0843611F0F2
:1014D000893641F5F80137FE07C06081718182814C
:1014E00093810C5F1F4F08C060817181072E000C33
:1014F000880B990B0E5F1F4FF32DFF763F2E97FF42
:1015000009C090958095709561957F4F8F4F9F4F43
:10151000F0683F2E2AE030E0A3010E94C90B882E1C
:10152000861845C0853731F4232D2F7EB22E2AE050
:1015300030E025C0932D997FB92E8F36C1F018F475
:10154000883579F0B5C0803719F0883721F0B0C000
:10155000E92FE061BE2EB4FE0DC0FB2DF460BF2E5E
:1015600009C034FE0AC0292F2660B22E06C028E02A
:1015700030E005C020E130E002C020E132E0F801B7
:10158000B7FE07C060817181828193810C5F1F4F1C
:1015900006C06081718180E090E00E5F1F4FA30163
:1015A0000E94C90B882E8618FB2DFF773F2E36FE32
:1015B0000DC0232D2E7FA22E891458F434FE0BC0AB
:1015C00032FC09C0832D8E7EA82E05C0B82CA32C1A
:1015D00003C0B82C01C0B92CA4FE0FC0FE01E80D59
:1015E000F11D8081803321F49A2D997EA92E09C0A6
:1015F000A2FE06C0B394B39404C08A2D867809F085
:10160000B394A3FC11C0A0FE06C0B21488F4280C49
:10161000922C9B180EC0B21460F4B60180E290E0E8
:101620000E948D0BB394F7CFB21418F42B1802C09C
:10163000982C212CA4FE10C0B60180E390E00E94FB
:101640008D0BA2FE17C0A1FC03C088E790E002C08A
:1016500088E590E0B6010CC08A2D867859F0A1FE8D
:1016600002C08BE201C080E2A7FC8DE2B60190E0EF
:101670000E948D0B891438F4B60180E390E00E943B
:101680008D0B9A94F7CF8A94F301E80DF11D8081B8
:10169000B60190E00E948D0B8110F5CF222009F455
:1016A00042CEB60180E290E00E948D0B2A94F6CFE4
:1016B000F6018681978102C08FEF9FEF2B960FB6C0
:1016C000F894DEBF0FBECDBFDF91CF911F910F9178
:1016D000FF90EF90DF90CF90BF90AF909F908F9052
:1016E0007F906F905F904F903F902F900895FC01F6
:1016F0000590615070400110D8F7809590958E0F3D
:101700009F1F0895FC016150704001900110D8F7AF
:10171000809590958E0F9F1F08950F931F93CF93E1
:10172000DF93FB01238121FD03C08FEF9FEF2CC0CE
:1017300022FF16C046815781248135814217530705
:1017400044F4A081B1819D012F5F3F4F31832083FD
:101750008C93268137812F5F3F4F3783268314C0B8
:101760008B01EC01FB010084F185E02D1995892B9B
:10177000E1F6D80116968D919C91179701961796D0
:101780009C938E931697CE01DF91CF911F910F916D
:101790000895FA01AA27283051F1203181F1E89407
:1017A0006F936E7F6E5F7F4F8F4F9F4FAF4FB1E054
:1017B0003ED0B4E03CD0670F781F891F9A1FA11D4F
:1017C000680F791F8A1F911DA11D6A0F711D811D50
:1017D000911DA11D20D009F468943F912AE0269F15
:1017E00011243019305D3193DEF6CF010895462F74
:1017F0004770405D4193B3E00FD0C9F7F6CF462F55
:101800004F70405D4A3318F0495D31FD40524193BD
:1018100002D0A9F7EACFB4E0A6959795879577957A
:101820006795BA95C9F700976105710508959B0101
:10183000AC010A2E06945795479537952795BA958A
:10184000C9F7620F731F841F951FA01D0895F89498
:02185000FFCFC8
:101852008803CA032C048F04E00440050000000042
:101862007374617274696E670A00483A20256420B5
:10187200543A202564200A0073746172742D6C69D5
:10188200737400656E642D6C697374005B633A2037
:1018920025702C20703A2025702C206E3A2025705D
:1018A2005D0A200068656C70004C69737461206386
:1018B2006F6D616E64693A0A0025730A0046696EAB
:1018C20065204C697374610A006D6F746F720066F3
:1018D2006F7277617264006261636B776172640038
:1018E20072656C6561736500436F6D616E646F2034
:1018F2006E6F6E2076616C69646F2C207365207345
:101902006572766520616975746F2073637269769A
:10191200657265202768656C7027200A004E756D18
:1019220065726F206D6F746F7265206E6F6E2076B8
:10193200616C69646F2C2073652073657276652013
:10194200616975746F2073637269766572652027A9
:1019520068656C7027200A006D6F746F7270776D06
:101962000064757479206369636C65206E6F6E2004
:1019720076616C69646F2C2073652073657276657D
:1019820020616975746F2073637269766572652070
:101992002768656C7027200A006D6F746F72727011
:1019A2006D0072706D76616C7565206E6F6E20765B
:1019B200616C69646F2C2073652073657276652093
:1019C200616975746F207363726976657265202729
:1019D20068656C7027200A002768656C70272020D4
:1019E200202020202020202020202020202020090C
:1019F2000909286D6F73747261206C61206C6973C0
:101A020074612064656920636F6D616E6469207022
:101A12006F73736962696C692900276D6F746F72E5
:101A2200206E756D5F6D6F746F726520666F727771
:101A320061726427202020202020202020202020C6
:101A420020202020202020202009090928617474E8
:101A520069766120696C206D6F746F7265206E7596
:101A62006D5F6D6F746F7265206D756F76656E64F4
:101A72006F6C6F206176616E74692900276D6F74D7
:101A82006F72206E756D5F6D6F746F72652062612B
:101A9200636B776172642720202020202020202081
:101AA20020202020202020202020090909286174DC
:101AB2007469766120696C206D6F746F7265206E37
:101AC200756D5F6D6F746F7265206D756F76656E83
:101AD200646F6C6F20696E64696574726F29002788
:101AE2006D6F746F72206E756D5F6D6F746F72655E
:101AF2002072656C656173652720202020202020DC
:101B020020202020202020202020202020202009EA
:101B1200090928737065676E6520696C206D6F74A2
:101B22006F7265206E756D5F6D6F746F72652900DF
:101B3200276D6F746F7270776D206E756D5F6D6F4C
:101B4200746F726520647574796369636C652720AC
:101B52002020202020202020202020202020202083
:101B6200202020202009090928696D706F73746193
:101B720020696C2070776D2064656C206D6F746FC6
:101B82007265206120647574796369636C652900EC
:101B9200276D6F746F7272706D206E756D5F6D6FF1
:101BA200746F72652072706D76616C756527202086
:101BB2002020202020202020202020202020202023
:101BC2002020202009090928696D706F7374612033
:101BD200696C2072706D2064656C206D6F746F7219
:0E1BE2006520612072706D76616C756529005A
:00000001FF
