:100000000C947A000C949B000C949B000C949B0025
:100010000C949B000C949B000C949B000C949B00F4
:100020000C949B000C949B000C949B000C949B00E4
:100030000C949B000C949B000C949B000C949B00D4
:100040000C949B000C9452030C949B000C949B000A
:100050000C949B000C949B000C949B000C949B00B4
:100060000C949B000C94E3000C9406010C949B00F0
:100070000C949B000C949B000C949B000C949B0094
:100080000C949B000C949B000C949B000C949B0084
:100090000C949B000C949B000C949B000C949B0074
:1000A0000C949B000C949B000C949B000C949B0064
:1000B0000C949B000C949B000C949B000C949B0054
:1000C0000C949B000C949B000C949B000C949B0044
:1000D0000C949B000C949B000C949B000C949B0034
:1000E0000C949B000C94FB010C949D000C94B100AB
:1000F0000C94A70011241FBECFEFD1E2DEBFCDBF0D
:1001000000E00CBF14E0A0E0B2E0EAEFF2E100E0B2
:100110000BBF02C007900D92A632B107D9F72EE0AF
:10012000A6E2B4E001C01D92A13FB207E1F70E9430
:10013000A7050C947B090C9400002FEF83E294EF49
:10014000215080409040E1F700C00000F6CF2FEF33
:1001500083ED90E3215080409040E1F700C0000023
:10016000F6CFCF93DF93CDB7DEB7DA950FB6F8941D
:10017000DEBF0FBECDBF9E012F5F3F4F790180E0F4
:1001800091E0F9019C01119221503040E1F710E01B
:100190000E9433018A3079F08D3069F0F701E10F68
:1001A000F11D80831F5FF701E10FF11D10820E9496
:1001B00033018A3089F7C7010E946D01C7010E948F
:1001C000D90410E0E5CF1F920F920FB60F921124C1
:1001D0000BB60F928F939F93EF93FF938091C6007E
:1001E000E0912905EF5FE093290590912805F0E063
:1001F000E65DFA4F8083FF91EF919F918F910F9071
:100200000BBE0F900FBE0F901F9018951F920F926C
:100210000FB60F9211240BB60F928F939F93EF930B
:10022000FF9390912704809126049817B1F0E091F4
:100230002604EF5FE0932604F0E0E85DFB4F808149
:100240008093C600FF91EF919F918F910F900BBE0D
:100250000F900FBE0F901F9018958091C1008F7D59
:100260008093C100EFCFF8949091280580912905E3
:100270001F929F931F928F938AE192E09F938F9397
:100280000E944E0678940F900F900F900F900F9051
:100290000F9090912905809128059817D1F3E0914E
:1002A0002805EF5FE0932805F0E0E65DFA4F8081D6
:1002B0000895209127042F5F909126042917E1F3D8
:1002C000E22FF0E0E85DFB4F8083209327048091CC
:1002D000C10080628093C1000895FC013081332306
:1002E000C1F0DC011196209127042F5F9091260424
:1002F0002917E1F3E22FF0E0E85DFB4F3083209314
:1003000027049091C10090629093C1003D913111FA
:10031000EACF08959093C5008093C40086E080934F
:10032000C20088E98093C100109228051092290527
:10033000109226041092270408959091C00095FF12
:10034000FCCF8093C60008958091C00087FFFCCF4A
:100350008091C60008958091C000881F8827881F5B
:100360000895FC012081222351F031969091C00024
:1003700095FFFCCF2093C60021912111F7CF08955E
:100380008A3049F09091C00095FFFCCF8093C60061
:1003900080E090E008959091C00095FFFCCF9DE033
:1003A0009093C600EFCF1092C50082E38093C40003
:1003B00086E08093C20088E98093C10010922805EE
:1003C0001092290510922604109227040895109285
:1003D000C50082E38093C40086E08093C20088E970
:1003E0008093C100109228051092290510922604CE
:1003F0001092270408957894A0912F06B0913006AA
:10040000109789F01296ED91FC911397309759F05F
:1004100014966D917D918D919C9117971995A0914E
:100420002F06B091300681E052968C9308950F9379
:100430001F93FC01538342830483158326833783F0
:10044000138612861186108682E0828B8BEF91E0F4
:10045000DB018C9311979C9311971C9211971C921E
:1004600011971C9211971C9211971C9211971C9234
:1004700011971C9211971C9211971C9211971C9224
:1004800011971C9211971C9211971C9211971C9214
:1004900011971C9211971C9211971C9211971C9204
:1004A00011971C9211971C9211971C926751710918
:1004B000718360831F910F910895CF93DF93FC01A7
:1004C000A081B1811097B1F084818130B9F0189684
:1004D000CD91DC911997D183C083DB87CA87848152
:1004E0008150848319961C921E9218971B961C9219
:1004F0001E921A97CD01DF91CF9108951382128237
:1005000011821082EDCFDB011A962D913C911B9741
:10051000232B11F08FEF089518962D913C91199788
:10052000232BC1F7FC012481211115C07183608345
:10053000738362831B967C936E931A9719961C9211
:100540001E921897DC0114962C9114972F5F149625
:100550002C9380E008950280F381E02D71876087FD
:10056000DB011B96FC93EE931A9719961C921E9230
:100570001897FC0173836283E5CF0F931F93CF938A
:10058000DF93FC01C081D18188E292E00E94620683
:100590002097E9F00CE312E089858F9388858F938B
:1005A0008B858F938A858F93DF93CF931F930F93C0
:1005B0000E944E060884D985C02DEDB7FEB7389647
:1005C0000FB6F894FEBF0FBEEDBF209729F783E367
:1005D00092E0DF91CF911F910F910C9462062F92C0
:1005E0003F924F925F926F927F928F929F92AF92C3
:1005F000BF92CF92DF92EF92FF920F931F93CF9310
:10060000DF930BB60F920CB60F920DB71EB7C82F23
:10061000D92F08831983C62FD72F088119810DBFC1
:100620001EBF0F900CB60F900BB6DF91CF911F91AC
:100630000F91FF90EF90DF90CF90BF90AF909F9081
:100640008F907F906F905F904F903F902F90089584
:10065000C82FD92F088119810DBF1EBF0F900CB66E
:100660000F900BB6DF91CF911F910F91FF90EF90FC
:10067000DF90CF90BF90AF909F908F907F906F90C2
:100680005F904F903F902F9018958AE698E1909355
:1006900089008093880082E080936F008CE08093D3
:1006A000810008951F920F920FB60F9211240BB67E
:1006B0000F922F933F934F935F936F937F938F93FB
:1006C0009F93AF93BF93EF93FF930E948F03FF918C
:1006D000EF91BF91AF919F918F917F916F915F91BA
:1006E0004F913F912F910F900BBE0F900FBE0F9027
:1006F0001F901895F8948AE296E00E945D0290930C
:10070000300680932F06892B41F00E94450380918B
:100710002F06909130060C9428030E94EB05CF938E
:10072000DF93C0912F06D0913006BE018AE296E099
:100730000E9483028AE296E00E945D029093300656
:1007400080932F06C817D90731F0BC01CE01DF9185
:10075000CF910C94EF02DF91CF9108958091010128
:10076000806380930101809102018F7E809302015A
:10077000809102018062809302019D9AA598269A39
:100780002E98259A2D9A6091310687E090E041E0FD
:1007900050E015C020910201206220930201A59A29
:1007A000EFEDFEE23197F1F700C00000A598EFED04
:1007B000FEE23197F1F700C00000019770F09A0156
:1007C000082E01C0220F0A94EAF7262319F7209178
:1007D00002012F7D20930201E2CF2E9A8FED9EE23F
:1007E0000197F1F700C000002E98EFEDFEE231977F
:1007F000F1F700C00000809102018F7E809302011A
:100800000895A59A8FED9EE20197F1F700C00000D0
:10081000A5988FED9EE20197F1F700C000000895C2
:100820002E9A8FED9EE20197F1F700C000002E98FE
:100830008FED9EE20197F1F700C00000089527E0D8
:1008400030E061E070E014C0906290930201A59ADC
:10085000EFEDFEE23197F1F700C00000A598EFED53
:10086000FEE23197F1F700C000002150310978F025
:10087000AB01022E01C0440F0A94EAF7482390917D
:1008800002014111E1CF9F7D90930201E0CF2E9AAA
:100890008FED9EE20197F1F700C000002E98EFED7A
:1008A000FEE23197F1F700C00000809102018F7ED7
:1008B00080930201089540913106813041F4613006
:1008C00009F446C008F449C0623009F43CC087E02E
:1008D00090E061E070E015C0209102012062209359
:1008E0000201A59AEFEDFEE23197F1F700C000009A
:1008F000A598EFEDFEE23197F1F700C000000197F7
:1009000070F09B01082E01C0220F0A94EAF72423FD
:1009100019F7209102012F7D20930201E2CF2E9A38
:100920008FED9EE20197F1F700C000002E98EFEDE9
:10093000FEE23197F1F700C00000809102018F7E46
:10094000809302010895407F486040933106BFCFF5
:10095000407F446040933106BACF407F4C60409363
:100960003106B5CFEF92FF920F931F93CF93DF9392
:100970000097C1F07C018C01C0E0D0E009C0F80113
:10098000808190E00E940E06F80181938F012196EC
:10099000F70101900020E9F73197EE19FF09CE1712
:1009A000DF0768F3DF91CF911F910F91FF90EF90D8
:1009B0000895CF92DF92EF92FF920F931F93CF9300
:1009C000DF93CDB7DEB7C250D1400FB6F894DEBF8B
:1009D0000FBECDBFAE014F5F5E4F62E572E00E9479
:1009E0001F068C010E94B204C8010E946D0164E5DB
:1009F00072E0C8010E941606892B09F45BC069E702
:100A000072E0C8010E941606892BB9F5C8010E9440
:100A10006D01AE014F5F5E4F62E572E080E090E0F5
:100A20000E941F068C010E946D01C8010E94F00502
:100A3000F82EAE014F5F5E4F62E572E080E090E01D
:100A40000E941F068C010E94B2046FE772E0C80189
:100A50000E941606892B09F46DC067E872E0C80190
:100A60000E941606892B09F46DC060E972E0C80186
:100A70000E941606892B09F458C085E3E8E9F2E0E4
:100A8000DE01119601900D928A95E1F7CE01019653
:100A90000E946D01CE5FDE4F0FB6F894DEBF0FBE31
:100AA000CDBFDF91CF911F910F91FF90EF90DF901D
:100AB000CF90089580E1E9E5F2E09E012F5F3F4F7E
:100AC0007901D90101900D928A95E1F7C9010E943F
:100AD0006D0100E012E089E6C82E82E0D82EF80110
:100AE000808191810E5F1F4F9F938F93DF92CF92F2
:100AF000FF92EF920E949206C7010E946D010F9033
:100B00000F900F900F900F900F90F2E000311F07A1
:100B100031F78CE0EDE6F2E0D70101900D928A9575
:100B2000E1F7C7010E946D01B5CF60E08F2D0E94F3
:100B30005B04B0CFC8010E946D0161E08F2D0E945F
:100B40005B04A8CF62E08F2D0E945B04A3CF0F93BC
:100B50001F930E94E7010E94AE0300E010E098019D
:100B60004DE950E067ED7AE088ED9AE00E941702C7
:100B700000E010E0980147EA50E061E37AE085E4A4
:100B80009AE00E94170200E010E0980141EB50E06B
:100B90006AEE7EE082E39AE00E94170265E47AE062
:100BA0008AE296E00E94830262E37AE08AE296E0BB
:100BB0000E94830268ED7AE08AE296E00E94830256
:100BC00080E192E00E94B1010E947A0380E090E00F
:100BD0001F910F91089581E090E0F8940C947B09A7
:100BE000FC0188279927E89421912032E9F32930E4
:100BF00010F02E30C8F32B3241F02D3239F46894C6
:100C000004C00E944606820F911D219120532A3074
:100C1000C0F31EF4909581959F4F0895911108950A
:100C200081548A5108F4805E855A0895FB01DC01E5
:100C30008D91019080190110D9F3990B0895FA0153
:100C4000A191B081009719F41097E1F0CD01DC017A
:100C5000CD010D90002011F4C00113C0FB012191C2
:100C6000222319F02015D9F7F3CFFB01219120158C
:100C700019F41E92119606C02223C1F70D90002090
:100C8000A1F7D001FA01A193B08308957AE0979F6C
:100C9000902D879F802D910D11240895CF93DF9380
:100CA000CDB7DEB7AE014A5F5F4FFA016191719136
:100CB000AF018091ED0E9091EE0E0E94C106DF9182
:100CC000CF9108950F931F93CF93DF93E091ED0E93
:100CD000F091EE0E238121FF1BC08C01D0E0C0E01B
:100CE000F80181918F016091ED0E7091EE0EDB01A4
:100CF0001896ED91FC911997882331F01995892B5D
:100D000079F3DFEFCFEFECCF8AE01995892B19F05B
:100D10008FEF9FEF02C08D2F9C2FDF91CF911F91FE
:100D20000F9108950F931F93CF93DF93CDB7DEB745
:100D30002E970FB6F894DEBF0FBECDBF0E891F8968
:100D400086E08C831A8309838FEF9FE79E838D83D0
:100D5000AE01465E5F4F688D798DCE0101960E948F
:100D6000C106EF81F885E00FF11F10822E960FB6B5
:100D7000F894DEBF0FBECDBFDF91CF911F910F91D1
:100D800008952F923F924F925F926F927F928F922F
:100D90009F92AF92BF92CF92DF92EF92FF920F930A
:100DA0001F93CF93DF93CDB7DEB72B970FB6F89491
:100DB000DEBF0FBECDBF6C017B018A01FC01178233
:100DC0001682838181FFCCC1CE0101963C01F601E0
:100DD0009381F70193FD859193FF81917F01882392
:100DE00009F4BAC1853239F493FD859193FF81915D
:100DF0007F01853229F4B60190E00E94E108E7CF37
:100E0000912C212C312CFFE1F315D8F08B3279F0A5
:100E100038F4803279F08332A1F4232D20611DC093
:100E20008D3261F0803369F4232D216016C0832D4B
:100E30008260382EE32DE4603E2E2AC0F32DF86048
:100E40001DC037FC2DC020ED280F2A3040F08E3217
:100E5000B9F436FC81C1232D2064322E19C036FE30
:100E600006C08AE0989E200D1124922E11C0EAE05F
:100E70002E9E200D1124222EF32DF0623F2E08C04D
:100E80008C3621F4832D8068382E02C0883641F4D8
:100E9000F70193FD859193FF81917F018111B3CF7C
:100EA000982F9F7D9554933028F40C5F1F4F9FE33C
:100EB00099830DC0833631F0833771F0833509F0A3
:100EC00059C021C0F801808189830E5F1F4F88249B
:100ED0008394912C530113C02801F2E04F0E511C52
:100EE000F801A080B18036FE03C0692D70E002C019
:100EF0006FEF7FEFC5010E94D6084C018201F32DF0
:100F0000FF773F2E16C0280122E0420E511CF80147
:100F1000A080B18036FE03C0692D70E002C06FEF83
:100F20007FEFC5010E94CB084C01F32DF0683F2EE6
:100F3000820133FC1BC0822D90E088169906B0F424
:100F4000B60180E290E00E94E1082A94F4CFF50116
:100F500037FC859137FE81915F01B60190E00E94D8
:100F6000E10821102A9421E0821A91088114910449
:100F700071F7E8C0843611F0893641F5F80137FE83
:100F800007C060817181828193810C5F1F4F08C00F
:100F900060817181072E000C880B990B0E5F1F4F2B
:100FA000F32DFF763F2E97FF09C0909580957095A1
:100FB00061957F4F8F4F9F4FF0683F2E2AE030E0C2
:100FC000A3010E941D09882E861845C0853731F47B
:100FD000232D2F7EB22E2AE030E025C0932D997F5D
:100FE000B92E8F36C1F018F4883579F0B5C0803746
:100FF00019F0883721F0B0C0E92FE061BE2EB4FEB1
:101000000DC0FB2DF460BF2E09C034FE0AC0292F8D
:101010002660B22E06C028E030E005C020E130E0B6
:1010200002C020E132E0F801B7FE07C060817181A3
:10103000828193810C5F1F4F06C06081718180E0C7
:1010400090E00E5F1F4FA3010E941D09882E861895
:10105000FB2DFF773F2E36FE0DC0232D2E7FA22EB7
:10106000891458F434FE0BC032FC09C0832D8E7EE7
:10107000A82E05C0B82CA32C03C0B82C01C0B92CD5
:10108000A4FE0FC0FE01E80DF11D8081803321F424
:101090009A2D997EA92E09C0A2FE06C0B394B394DE
:1010A00004C08A2D867809F0B394A3FC11C0A0FE79
:1010B00006C0B21488F4280C922C9B180EC0B214EF
:1010C00060F4B60180E290E00E94E108B394F7CFAB
:1010D000B21418F42B1802C0982C212CA4FE10C0B6
:1010E000B60180E390E00E94E108A2FE17C0A1FCD7
:1010F00003C088E790E002C088E590E0B6010CC02C
:101100008A2D867859F0A1FE02C08BE201C080E2F0
:10111000A7FC8DE2B60190E00E94E108891438F442
:10112000B60180E390E00E94E1089A94F7CF8A9498
:10113000F301E80DF11D8081B60190E00E94E10805
:101140008110F5CF222009F442CEB60180E290E072
:101150000E94E1082A94F6CFF6018681978102C0A9
:101160008FEF9FEF2B960FB6F894DEBF0FBECDBF6B
:10117000DF91CF911F910F91FF90EF90DF90CF9073
:10118000BF90AF909F908F907F906F905F904F90A7
:101190003F902F900895FC01059061507040011020
:1011A000D8F7809590958E0F9F1F0895FC01615090
:1011B000704001900110D8F7809590958E0F9F1F79
:1011C00008950F931F93CF93DF93FB01238121FD9C
:1011D00003C08FEF9FEF2CC022FF16C046815781BE
:1011E000248135814217530744F4A081B1819D01C8
:1011F0002F5F3F4F318320838C93268137812F5F70
:101200003F4F3783268314C08B01EC01FB01008420
:10121000F185E02D1995892BE1F6D80116968D916F
:101220009C911797019617969C938E931697CE01D3
:10123000DF91CF911F910F910895FA01AA272830CD
:1012400051F1203181F1E8946F936E7F6E5F7F4F93
:101250008F4F9F4FAF4FB1E03ED0B4E03CD0670F0F
:10126000781F891F9A1FA11D680F791F8A1F911D62
:10127000A11D6A0F711D811D911DA11D20D009F4B2
:1012800068943F912AE0269F11243019305D3193F4
:10129000DEF6CF010895462F4770405D4193B3E0DD
:1012A0000FD0C9F7F6CF462F4F70405D4A3318F084
:1012B000495D31FD4052419302D0A9F7EACFB4E035
:1012C000A6959795879577956795BA95C9F70097ED
:1012D0006105710508959B01AC010A2E069457958E
:1012E000479537952795BA95C9F7620F731F841FE5
:0A12F000951FA01D0895F894FFCF8C
:1012FA00CD020F037103D4030000000000000000B8
:10130A007374617274696E670A00483A2025642012
:10131A00543A202564200A0073746172742D6C6932
:10132A00737400656E642D6C697374005B633A2094
:10133A0025702C20703A2025702C206E3A202570BA
:10134A005D0A200068656C70004C697374612063E3
:10135A006F6D616E64693A0A0025730A0046696E08
:10136A0065204C697374610A006D6F746F72006650
:10137A006F7277617264006261636B776172640095
:10138A0072656C6561736500436F6D616E646F2091
:10139A006E6F6E2076616C69646F2C2073652073A2
:1013AA006572766520616975746F207363726976F8
:1013BA00657265202768656C7027200A00276865B2
:1013CA006C70272020202020202020202020202070
:1013DA0020202020090909286D6F73747261206C1E
:1013EA0061206C697374612064656920636F6D6143
:1013FA006E646920706F73736962696C692900276A
:10140A006D6F746F72206E756D5F6D6F746F72653C
:10141A0020666F72776172642720202020202020A6
:10142A0020202020202020202020202020200909E0
:10143A00092861747469766120696C206D6F746F14
:10144A007265206E756D5F6D6F746F7265206D7554
:10145A006F76656E646F6C6F206176616E74692950
:10146A0000276D6F746F72206E756D5F6D6F746F8C
:10147A007265206261636B77617264272020202085
:10148A002020202020202020202020202020200969
:10149A0009092861747469766120696C206D6F741A
:1014AA006F7265206E756D5F6D6F746F7265206DFA
:1014BA00756F76656E646F6C6F20696E64696574AA
:1014CA00726F2900276D6F746F72206E756D5F6D74
:1014DA006F746F72652072656C6561736527202071
:1014EA0020202020202020202020202020202020F2
:1014FA002020202009090928737065676E65206914
:10150A006C206D6F746F7265206E756D5F6D6F7490
:06151A006F72652900005C
:00000001FF
