:100000000C947A000C94F9040C949B000C949B00C3
:100010000C949B000C949B000C949B000C949B00F4
:100020000C949B000C949B000C949B000C949B00E4
:100030000C949B000C949B000C949B000C949B00D4
:100040000C949B000C9448030C949B000C949B0014
:100050000C949B000C949B000C949B000C949B00B4
:100060000C949B000C94D9000C94FC000C949B0005
:100070000C949B000C949B000C949B000C949B0094
:100080000C949B000C949B000C949B000C949B0084
:100090000C949B000C949B000C949B000C949B0074
:1000A0000C949B000C949B000C949B000C949B0064
:1000B0000C949B000C949B000C949B000C949B0054
:1000C0000C949B000C949B000C94EF060C949B00EA
:1000D0000C949B000C949B000C949B000C949B0034
:1000E0000C949B000C94F1010C949D000C94AA00BC
:1000F0000C94A70011241FBECFEFD1E2DEBFCDBF0D
:1001000000E00CBF17E0A0E0B2E0E6E5F7E100E0B8
:100110000BBF02C007900D92A23DB107D9F722E1B3
:10012000A2EDB7E001C01D92A63AB207E1F70E9426
:100130009E070C94A90B0C9400002FEF83E294EF20
:10014000215080409040E1F700C00000F6CF0E94AF
:100150004C07FDCFCF93DF93CDB7DEB7DA950FB65F
:10016000F894DEBF0FBECDBF9E012F5F3F4F7901D8
:1001700080E091E0F9019C01119221503040E1F7BB
:1001800010E00E9429018A3079F08D3069F0F70182
:10019000E10FF11D80831F5FF701E10FF11D108258
:1001A0000E9429018A3089F7C7010E946D0510E07D
:1001B000E8CF1F920F920FB60F9211240BB60F9239
:1001C0008F939F93EF93FF938091C600E091D508A2
:1001D000EF5FE093D5089091D408F0E0EA52F74F32
:1001E0008083FF91EF919F918F910F900BBE0F90A5
:1001F0000FBE0F901F9018951F920F920FB60F927F
:1002000011240BB60F928F939F93EF93FF939091CE
:10021000D3078091D2079817B1F0E091D207EF5F32
:10022000E093D207F0E0EC52F84F80818093C60053
:10023000FF91EF919F918F910F900BBE0F900FBE8A
:100240000F901F9018958091C1008F7D8093C10001
:10025000EFCFF8949091D4088091D5081F929F9386
:100260001F928F938EE192E09F938F930E947C0860
:1002700078940F900F900F900F900F900F90909197
:10028000D5088091D4089817D1F3E091D408EF5F96
:10029000E093D408F0E0EA52F74F8081089520916E
:1002A000D3072F5F9091D2072917E1F3E22FF0E0F7
:1002B000EC52F84F80832093D3078091C100806275
:1002C0008093C1000895FC0130813323C1F0DC012B
:1002D00011962091D3072F5F9091D2072917E1F350
:1002E000E22FF0E0EC52F84F30832093D307909147
:1002F000C10090629093C1003D913111EACF089501
:100300009093C5008093C40086E08093C20088E982
:100310008093C1001092D4081092D5081092D20791
:100320001092D30708959091C00095FFFCCF809361
:10033000C60008958091C00087FFFCCF8091C60061
:1003400008958091C000881F8827881F0895FC01A8
:100350002081222351F031969091C00095FFFCCF6F
:100360002093C60021912111F7CF08958A3049F0DA
:100370009091C00095FFFCCF8093C60080E090E094
:1003800008959091C00095FFFCCF9DE09093C6002A
:10039000EFCF1092C50082E38093C40086E0809383
:1003A000C20088E98093C1001092D4081092D50849
:1003B0001092D2071092D30708951092C50082E3DD
:1003C0008093C40086E08093C20088E98093C100D6
:1003D0001092D4081092D5081092D2071092D30729
:1003E00008957894A091DB09B091DC09109789F009
:1003F0001296ED91FC911397309759F014966D91E8
:100400007D918D919C9117971995A091DB09B091E1
:10041000DC0981E052968C9308950F931F93FC01A1
:10042000538342830483158326833783138612867E
:100430001186108682E0828B81EF91E0DB018C9344
:1004400011979C9311971C9211971C9211971C92D3
:1004500011971C9211971C9211971C9211971C9244
:1004600011971C9211971C9211971C9211971C9234
:1004700011971C9211971C9211971C9211971C9224
:1004800011971C9211971C9211971C9211971C9214
:1004900011971C9211971C926751710971836083A7
:1004A0001F910F910895CF93DF93FC01A081B1813B
:1004B0001097B1F084818130B9F01896CD91DC911C
:1004C0001997D183C083DB87CA8784818150848355
:1004D00019961C921E9218971B961C921E921A97A0
:1004E000CD01DF91CF910895138212821182108283
:1004F000EDCFDB011A962D913C911B97232B11F028
:100500008FEF089518962D913C911997232BC1F7E1
:10051000FC012481211115C0718360837383628380
:100520001B967C936E931A9719961C921E9218979D
:10053000DC0114962C9114972F5F14962C9380E075
:1005400008950280F381E02D71876087DB011B969F
:10055000FC93EE931A9719961C921E921897FC0121
:1005600073836283E5CF0F931F93CF93DF93FC01D7
:10057000C081D1818CE292E00E9490082097E9F03E
:1005800000E412E089858F9388858F938B858F9304
:100590008A858F93DF93CF931F930F930E947C08DC
:1005A0000884D985C02DEDB7FEB738960FB6F894FC
:1005B000FEBF0FBEEDBF209729F787E392E0DF91E2
:1005C000CF911F910F910C9490082F923F924F92D0
:1005D0005F926F927F928F929F92AF92BF92CF92D3
:1005E000DF92EF92FF920F931F93CF93DF930BB69F
:1005F0000F920CB60F920DB71EB7C82FD92F0883D4
:100600001983C62FD72F088119810DBF1EBF0F90E8
:100610000CB60F900BB6DF91CF911F910F91FF9009
:10062000EF90DF90CF90BF90AF909F908F907F9092
:100630006F905F904F903F902F900895C82FD92FC3
:10064000088119810DBF1EBF0F900CB60F900BB61D
:10065000DF91CF911F910F91FF90EF90DF90CF909E
:10066000BF90AF909F908F907F906F905F904F90D2
:100670003F902F9018958AE698E190938900809397
:10068000880082E080936F008CE080938100089561
:100690001F920F920FB60F9211240BB60F922F9349
:1006A0003F934F935F936F937F938F939F93AF93FA
:1006B000BF93EF93FF930E948503FF91EF91BF914A
:1006C000AF919F918F917F916F915F914F913F91EA
:1006D0002F910F900BBE0F900FBE0F901F9018958B
:1006E000F89486ED99E00E9453029093DC09809380
:1006F000DB09892B41F00E943B038091DB0990913B
:10070000DC090C941E030E941908CF93DF93C0915B
:10071000DB09D091DC09BE0186ED99E00E947902E7
:1007200086ED99E00E9453029093DC098093DB09E7
:10073000C817D90731F0BC01CE01DF91CF910C94DD
:10074000E502DF91CF91089580910101806380934C
:100750000101809102018F7E80930201809102014C
:100760008062809302019D9AA598269A2E986091A6
:10077000DF0987E090E041E050E015C020910201E0
:10078000206220930201A59AEFEDFEE23197F1F786
:1007900000C00000A598EFEDFEE23197F1F700C030
:1007A0000000019770F09A01082E01C0220F0A94F0
:1007B000EAF7262319F7209102012F7D20930201E9
:1007C000E2CF2E9A8FED9EE20197F1F700C0000074
:1007D0002E98EFEDFEE23197F1F700C00000809116
:1007E00002018F7E809302010895A59A8FED9EE20B
:1007F0000197F1F700C00000A5988FED9EE20197E8
:10080000F1F700C0000008952E9A8FED9EE2019747
:10081000F1F700C000002E988FED9EE20197F1F7EE
:1008200000C00000089527E030E061E070E014C0EF
:10083000906290930201A59AEFEDFEE23197F1F7F5
:1008400000C00000A598EFEDFEE23197F1F700C07F
:1008500000002150310978F0AB01022E01C0440F95
:100860000A94EAF74823909102014111E1CF9F7D5C
:1008700090930201E0CF2E9A8FED9EE20197F1F75F
:1008800000C000002E98EFEDFEE23197F1F700C0B6
:100890000000809102018F7E8093020108954091B3
:1008A000DF09813041F4613009F446C008F449C0E1
:1008B000623009F43CC087E090E061E070E015C070
:1008C00020910201206220930201A59AEFEDFEE241
:1008D0003197F1F700C00000A598EFEDFEE23197E7
:1008E000F1F700C00000019770F09B01082E01C0D5
:1008F000220F0A94EAF7242319F7209102012F7D91
:1009000020930201E2CF2E9A8FED9EE20197F1F73C
:1009100000C000002E98EFEDFEE23197F1F700C025
:100920000000809102018F7E809302010895407F34
:1009300048604093DF09BFCF407F44604093DF09A8
:10094000BACF407F4C604093DF09B5CFA0918600BD
:10095000B0918700282F30E00E940A0824E630E09A
:1009600040E050E00E94E807E9E8F0E03083A8E8C2
:10097000B0E02C938C9180810895A0918600B09175
:100980008700262F30E00E940A0824E630E040E08D
:1009900050E00E94E807E9E8F0E03083A8E8B0E022
:1009A0002C938C9180810895259A82EC809380000D
:1009B0008AE180938100E6E8F0E08FE19EE4918394
:1009C000808380819181E9E8F0E01082A8E8B0E0BE
:1009D0001C928C91808108958AB18C7F8AB98BB1E9
:1009E00083608BB9E9E6F0E0808183608083E89AD8
:1009F00008951F920F920FB60F9211248F939F9319
:100A00008091DD099091DE0901969093DE09809333
:100A1000DD099F918F910F900FBE0F901F90189539
:100A2000413099F058F0423041F481E08093E4097C
:100A30007093E6096093E509089508951092E4091A
:100A40001092E6091092E50908954093E409709325
:100A5000E6096093E5090895EF92FF920F931F93C3
:100A6000CF93DF930097C1F07C018C01C0E0D0E010
:100A700009C0F801808190E00E943C08F801819350
:100A80008F012196F70101900020E9F73197EE19C7
:100A9000FF09CE17DF0768F3DF91CF911F910F9108
:100AA000FF90EF9008950097A9F0DC010D900020D1
:100AB000E9F7FC01CD01019707C0219130E02053F7
:100AC00031092A30310530F4E817F907B1F781E030
:100AD00090E0089580E090E00895AF92BF92CF92A9
:100AE000DF92EF92FF920F931F93CF93DF93CDB7D7
:100AF000DEB7C250D1400FB6F894DEBF0FBECDBFF7
:100B0000AE014F5F5E4F66E572E00E944D088C01BA
:100B10000E942C05C8010E94630168E572E0C801CB
:100B20000E944408892B09F489C06DE772E0C8016E
:100B30000E944408892B09F4BFC06CE073E0C8012F
:100B40000E944408892B09F4D1C06DE473E0C80108
:100B50000E944408892B09F052C0AE014F5F5E4FDE
:100B600066E572E080E090E00E944D088C010E94F2
:100B70006301C8010E945305892B09F4B3C0C80161
:100B80000E941E08F82EAE014F5F5E4F66E572E0D0
:100B900080E090E00E944D088C010E945305892B53
:100BA00009F4FFC0C8010E946301C8010E941E0829
:100BB0006C01AE014F5F5E4F66E572E080E090E051
:100BC0000E944D088C0163E872E00E944408892B62
:100BD00009F4FCC06BE872E0C8010E944408892B4C
:100BE00009F4D9C064E972E0C8010E944408892B65
:100BF00031F440E0B6018F2D0E9410050DC085E351
:100C0000ECE9F2E0DE01119601900D928A95E1F790
:100C1000CE0101960E946301CE5FDE4F0FB6F894BD
:100C2000DEBF0FBECDBFDF91CF911F910F91FF901F
:100C3000EF90DF90CF90BF90AF90089580E1EDE509
:100C4000F2E09E012F5F3F4F7901D90101900D9293
:100C50008A95E1F7C9010E94630100E012E084E196
:100C6000A82E82E0B82E9DE6C92E92E0D92EF8017A
:100C7000808191810E5F1F4F9F938F93DF92CF9260
:100C8000FF92EF920E94C008C7010E9463010F907B
:100C90000F900F900F900F900F90A016B10639F79C
:100CA0008CE0E1E7F2E0D70101900D928A95E1F73F
:100CB000C7010E946301B0CFAE014F5F5E4F66E592
:100CC00072E080E090E00E944D088C010E94630178
:100CD000C8010E945305892B29F0C8010E941E08F3
:100CE000F82E32C08BE3E1EDF2E08CCFAE014F5F26
:100CF0005E4F66E572E080E090E00E944D088C0156
:100D00000E946301C8010E945305892B59F3C80151
:100D10000E941E08F82EAE014F5F5E4F66E572E03E
:100D200080E090E00E944D088C010E945305892BC1
:100D300009F443C0C8010E946301C8010E941E0853
:100D4000BC018F2D0E94BD04AE014F5F5E4F66E572
:100D500072E080E090E00E944D088C010E942C051A
:100D600063E872E0C8010E944408892BF1F06BE847
:100D700072E0C8010E944408892B19F164E972E00D
:100D8000C8010E944408892B09F039CF60E08F2DFB
:100D90000E944F0441CF42E0B6018F2D0E94100502
:100DA0003BCF86E3E6E5F3E02DCFC8010E94630167
:100DB00061E08F2D0E944F042FCF88E3E5E1F3E03F
:100DC00021CF62E08F2D0E944F0426CFC8010E94E0
:100DD000630141E0B6018F2D0E9410051DCF1F92C7
:100DE0000F920FB60F9211248F939F93AF93BF93DF
:100DF0008091E0099091E109A091E209B091E309A5
:100E00000196A11DB11D8093E0099093E109A09383
:100E1000E209B093E3099BB184E089278BB9BF91C4
:100E2000AF919F918F910F900FBE0F901F901895CB
:100E30001092200182E08093210181E08093730071
:100E4000109225011092240178940895F8948091CD
:100E5000E0099091E109A091E209B091E3092091A4
:100E6000240130912501D09B07C02F3F4FEF34075D
:100E700019F00196A11DB11D7894DC0199278827EE
:100E8000820F931FA11DB11DB695A79597958795C4
:100E9000BC01CD019F7008950F931F93CF93DF93F3
:100EA000CDB7DEB7DA950FB6F894DEBF0FBECDBF73
:100EB0008091E40981112EC08091DE098F93809189
:100EC000DD098F9387EC97E09F938F938E010F5FDF
:100ED0001F4F1F930F930E94C008C8010E94630117
:100EE0009FEF23ED80E3915020408040E1F700C068
:100EF00000000F900F900F900F900F900F90D395D0
:100F00000FB6F894DEBF0FBECDBFDF91CF911F911A
:100F10000F9108958EE0E9EBF7E0DE011196019064
:100F20000D928A95E1F7CE0101960E9463018FE947
:100F30009FE00197F1F700C00000E1CF0F931F93EE
:100F40000E94DD010E94A4030E94D4040E94EC04CC
:100F50000E94180700E010E098014DE950E06CE8AD
:100F60007EE08DE89EE00E940D0200E010E0980116
:100F700047EA50E066EE7DE08AEF9DE00E940D02B8
:100F800000E010E098014AEA50E06FE972E187EE74
:100F90009DE00E940D026AEF7DE086ED99E00E94DF
:100FA000790267EE7DE086ED99E00E9479026DE8B6
:100FB0007EE086ED99E00E94790284E192E00E9451
:100FC000A7010E94700380E090E01F910F910895A7
:100FD000A1E21A2EAA1BBB1BFD010DC0AA1FBB1F3D
:100FE000EE1FFF1FA217B307E407F50720F0A21BAF
:100FF000B30BE40BF50B661F771F881F991F1A941C
:1010000069F760957095809590959B01AC01BD0145
:10101000CF010895A29FB001B39FC001A39F700D9F
:10102000811D1124911DB29F700D811D1124911DF0
:10103000089581E090E0F8940C94A90BFC018827B6
:101040009927E89421912032E9F3293010F02E30CD
:10105000C8F32B3241F02D3239F4689404C00E9459
:101060007408820F911D219120532A30C0F31EF481
:10107000909581959F4F08959111089581548A51BB
:1010800008F4805E855A0895FB01DC018D91019082
:1010900080190110D9F3990B0895FA01A191B0813B
:1010A000009719F41097E1F0CD01DC01CD010D900E
:1010B000002011F4C00113C0FB012191222319F07B
:1010C0002015D9F7F3CFFB012191201519F41E92B9
:1010D000119606C02223C1F70D900020A1F7D00180
:1010E000FA01A193B08308957AE0979F902D879F8E
:1010F000802D910D11240895CF93DF93CDB7DEB7E6
:10110000AE014A5F5F4FFA0161917191AF01809129
:10111000A2129091A3120E94EF08DF91CF9108953F
:101120000F931F93CF93DF93E091A212F091A3123C
:10113000238121FF1BC08C01D0E0C0E0F801819128
:101140008F016091A2127091A312DB011896ED91AC
:10115000FC911997882331F01995892B79F3DFEFEA
:10116000CFEFECCF8AE01995892B19F08FEF9FEF25
:1011700002C08D2F9C2FDF91CF911F910F91089569
:101180000F931F93CF93DF93CDB7DEB72E970FB694
:10119000F894DEBF0FBECDBF0E891F8986E08C8319
:1011A0001A8309838FEF9FE79E838D83AE01465E8E
:1011B0005F4F688D798DCE0101960E94EF08EF8117
:1011C000F885E00FF11F10822E960FB6F894DEBF5F
:1011D0000FBECDBFDF91CF911F910F9108952F9238
:1011E0003F924F925F926F927F928F929F92AF92B7
:1011F000BF92CF92DF92EF92FF920F931F93CF9304
:10120000DF93CDB7DEB72B970FB6F894DEBF0FBED6
:10121000CDBF6C017B018A01FC011782168283819C
:1012200081FFCCC1CE0101963C01F6019381F7010B
:1012300093FD859193FF81917F01882309F4BAC1C1
:10124000853239F493FD859193FF81917F01853239
:1012500029F4B60190E00E940F0BE7CF912C212CCE
:10126000312CFFE1F315D8F08B3279F038F480326D
:1012700079F08332A1F4232D20611DC08D3261F0FD
:10128000803369F4232D216016C0832D8260382EAF
:10129000E32DE4603E2E2AC0F32DF8601DC037FC1C
:1012A0002DC020ED280F2A3040F08E32B9F436FCE4
:1012B00081C1232D2064322E19C036FE06C08AE07B
:1012C000989E200D1124922E11C0EAE02E9E200D32
:1012D0001124222EF32DF0623F2E08C08C3621F40B
:1012E000832D8068382E02C0883641F4F70193FDC3
:1012F000859193FF81917F018111B3CF982F9F7DBD
:101300009554933028F40C5F1F4F9FE399830DC0D1
:10131000833631F0833771F0833509F059C021C02D
:10132000F801808189830E5F1F4F88248394912C5C
:10133000530113C02801F2E04F0E511CF801A080A8
:10134000B18036FE03C0692D70E002C06FEF7FEF01
:10135000C5010E94040B4C018201F32DFF773F2E43
:1013600016C0280122E0420E511CF801A080B18075
:1013700036FE03C0692D70E002C06FEF7FEFC5013C
:101380000E94F90A4C01F32DF0683F2E820133FCD4
:101390001BC0822D90E088169906B0F4B60180E259
:1013A00090E00E940F0B2A94F4CFF50137FC859151
:1013B00037FE81915F01B60190E00E940F0B211072
:1013C0002A9421E0821A91088114910471F7E8C0EF
:1013D000843611F0893641F5F80137FE07C0608187
:1013E0007181828193810C5F1F4F08C06081718180
:1013F000072E000C880B990B0E5F1F4FF32DFF7605
:101400003F2E97FF09C090958095709561957F4F0D
:101410008F4F9F4FF0683F2E2AE030E0A3010E94DB
:101420004B0B882E861845C0853731F4232D2F7E2F
:10143000B22E2AE030E025C0932D997FB92E8F3649
:10144000C1F018F4883579F0B5C0803719F08837C5
:1014500021F0B0C0E92FE061BE2EB4FE0DC0FB2D1F
:10146000F460BF2E09C034FE0AC0292F2660B22EB8
:1014700006C028E030E005C020E130E002C020E1F5
:1014800032E0F801B7FE07C06081718182819381EB
:101490000C5F1F4F06C06081718180E090E00E5F9D
:1014A0001F4FA3010E944B0B882E8618FB2DFF7740
:1014B0003F2E36FE0DC0232D2E7FA22E891458F408
:1014C00034FE0BC032FC09C0832D8E7EA82E05C0D1
:1014D000B82CA32C03C0B82C01C0B92CA4FE0FC09B
:1014E000FE01E80DF11D8081803321F49A2D997E53
:1014F000A92E09C0A2FE06C0B394B39404C08A2DDD
:10150000867809F0B394A3FC11C0A0FE06C0B21403
:1015100088F4280C922C9B180EC0B21460F4B6010B
:1015200080E290E00E940F0BB394F7CFB21418F44E
:101530002B1802C0982C212CA4FE10C0B60180E309
:1015400090E00E940F0BA2FE17C0A1FC03C088E729
:1015500090E002C088E590E0B6010CC08A2D867844
:1015600059F0A1FE02C08BE201C080E2A7FC8DE22F
:10157000B60190E00E940F0B891438F4B60180E3A5
:1015800090E00E940F0B9A94F7CF8A94F301E80D34
:10159000F11D8081B60190E00E940F0B8110F5CF04
:1015A000222009F442CEB60180E290E00E940F0BA7
:1015B0002A94F6CFF6018681978102C08FEF9FEFC4
:1015C0002B960FB6F894DEBF0FBECDBFDF91CF9143
:1015D0001F910F91FF90EF90DF90CF90BF90AF9051
:1015E0009F908F907F906F905F904F903F902F9043
:1015F0000895FC010590615070400110D8F7809566
:1016000090958E0F9F1F0895FC01615070400190CE
:101610000110D8F7809590958E0F9F1F08950F9316
:101620001F93CF93DF93FB01238121FD03C08FEF35
:101630009FEF2CC022FF16C046815781248135813F
:101640004217530744F4A081B1819D012F5F3F4FA2
:10165000318320838C93268137812F5F3F4F3783DF
:10166000268314C08B01EC01FB010084F185E02D81
:101670001995892BE1F6D80116968D919C911797B3
:10168000019617969C938E931697CE01DF91CF917A
:101690001F910F910895FA01AA27283051F12031A6
:1016A00081F1E8946F936E7F6E5F7F4F8F4F9F4FF6
:1016B000AF4FB1E03ED0B4E03CD0670F781F891F38
:1016C0009A1FA11D680F791F8A1F911DA11D6A0F06
:1016D000711D811D911DA11D20D009F468943F91B9
:1016E0002AE0269F11243019305D3193DEF6CF01B8
:1016F0000895462F4770405D4193B3E00FD0C9F77E
:10170000F6CF462F4F70405D4A3318F0495D31FDEA
:101710004052419302D0A9F7EACFB4E0A69597953D
:10172000879577956795BA95C9F700976105710513
:1017300008959B01AC010A2E06945795479537955D
:101740002795BA95C9F7620F731F841F951FA01DB7
:061750000895F894FFCF9C
:101756008C03CE0330049304E4045E05DB054F06D8
:10176600C70642077374617274696E670A00483A65
:1017760020256420543A202564200A00737461727F
:10178600742D6C69737400656E642D6C69737400D6
:101796005B633A2025702C20703A2025702C206E31
:1017A6003A2025705D0A200068656C70004C6973EC
:1017B600746120636F6D616E64693A0A0025730A6D
:1017C6000046696E65204C697374610A006D6F741A
:1017D6006F7200666F7277617264006261636B7725
:1017E6006172640072656C6561736500436F6D615B
:1017F6006E646F206E6F6E2076616C69646F2C204C
:10180600736520736572766520616975746F2073E0
:1018160063726976657265202768656C7027200A91
:10182600004E756D65726F206D6F746F7265206EF8
:101836006F6E2076616C69646F2C2073652073650A
:1018460072766520616975746F2073637269766557
:101856007265202768656C7027200A006D6F746FAB
:101866007270776D0064757479206379636C652096
:101876006E6F6E2076616C69646F2C2073652073C1
:101886006572766520616975746F20736372697617
:10189600657265202768656C7027200A006D6F7475
:1018A6006F7272706D0072706D76616C7565206E08
:1018B6006F6E2076616C69646F2C2073652073658A
:1018C60072766520616975746F20736372697665D7
:1018D6007265202768656C7027200A002768656C8A
:1018E600702720202020202020202020202020209B
:1018F600202020090909286D6F73747261206C61BC
:10190600206C697374612064656920636F6D616E14
:10191600646920706F73736962696C692900276D49
:101926006F746F72206E756D5F6D6F746F72652068
:10193600666F727761726427202020202020202085
:1019460020202020202020202020202020090909D6
:101956002861747469766120696C206D6F746F728A
:1019660065206E756D5F6D6F746F7265206D756F36
:1019760076656E646F6C6F206176616E746929009E
:10198600276D6F746F72206E756D5F6D6F746F72F9
:1019960065206261636B77617264272020202020B6
:1019A600202020202020202020202020202009095F
:1019B600092861747469766120696C206D6F746F93
:1019C6007265206E756D5F6D6F746F7265206D75D3
:1019D6006F76656E646F6C6F20696E64696574728C
:1019E6006F2900276D6F746F72206E756D5F6D6F56
:1019F600746F72652072656C65617365272020209F
:101A060020202020202020202020202020202020D0
:101A160020202009090928737065676E6520696CA6
:101A2600206D6F746F7265206E756D5F6D6F746F6C
:101A360072652900276D6F746F7270776D206E75F1
:101A46006D5F6D6F746F7265206475747963796309
:101A56006C6520666F7277617264272020202020D3
:101A66002020202020202020202020202020202070
:101A76002009090928696D706F73746120696C20EB
:101A860070776D2064656C206D6F746F7265206170
:101A960020647574796379636C65206D756F7665FE
:101AA6006E646F6C6F206176616E74692900276DB4
:101AB6006F746F7270776D206E756D5F6D6F746F7A
:101AC600726520647574796379636C6520626163FD
:101AD6006B77617264272020202020202020202080
:101AE600202020202020202020202020090909282D
:101AF600696D706F73746120696C2070776D2064F6
:101B0600656C206D6F746F726520612064757479E1
:101B16006379636C65206D756F76656E646F6C6F47
:101B260020696E64696574726F2900276D6F746F22
:101B36007270776D206E756D5F6D6F746F72652054
:101B4600647574796379636C652072656C6561731D
:101B56006527202020202020202020202020202033
:101B6600202020202020202009090928696D706F77
:101B760073746120696C2070776D2064656C206DCC
:101B86006F746F7265206120647574796379636C14
:101B9600652065206C6F20737065676E6529002768
:101BA6006D6F746F7272706D206E756D5F6D6F7490
:101BB6006F72652072706D76616C756520666F72E6
:101BC60077617264272020202020202020202020DA
:101BD60020202020202020202020200909092869F3
:101BE6006D706F73746120696C2072706D2064650E
:101BF6006C206D6F746F726520612072706D7661F6
:101C06006C7565206D756F76656E646F6C6F20619F
:101C160076616E74692900276D6F746F7272706DCC
:101C2600206E756D5F6D6F746F72652072706D7664
:101C3600616C7565206261636B7761726427202031
:101C4600202020202020202020202020202020208E
:101C56002020202009090928696D706F737461209E
:101C6600696C2072706D2064656C206D6F746F7284
:101C76006520612072706D76616C7565206D756F7B
:101C860076656E646F6C6F20696E64696574726FD9
:101C96002900276D6F746F7272706D206E756D5F9F
:101CA6006D6F746F72652072706D76616C756520EC
:101CB60072656C6561736527202020202020202016
:101CC600202020202020202020202020202009093C
:101CD6000928696D706F7374612061207A65726F6F
:101CE600206920676972692064656C206D6F746F66
:101CF6007265206577206469736162696C697461D5
:101D060020696C20706964290073746F206E656C9D
:101D160020706964200A00636E743A202575200AD3
:021D26000000BB
:00000001FF
