:100000000C947C000C949D000C949D000C949D001D
:100010000C949D000C949D000C949D000C949D00EC
:100020000C949D000C949D000C949D000C949D00DC
:100030000C949D000C949D000C949D000C949D00CC
:100040000C949D000C947D020C949D000C949D00DA
:100050000C949D000C949D000C949D000C949D00AC
:100060000C949D000C949D000C949D000C949D009C
:100070000C949D000C949D000C949D000C949D008C
:100080000C949D000C949D000C949D000C949D007C
:100090000C949D000C949D000C949D000C949D006C
:1000A0000C949D000C949D000C949D000C949D005C
:1000B0000C949D000C949D000C949D000C949D004C
:1000C0000C949D000C949D000C949D000C949D003C
:1000D0000C949D000C949D000C949D000C949D002C
:1000E0000C949D000C94B9000C94D3000C949F00C8
:1000F0000C94AC000C94260111241FBECFEFD1E26A
:10010000DEBFCDBF00E00CBF12E0A0E0B2E0E0E453
:10011000FCE000E00BBF02C007900D92AC34B107C9
:10012000D9F725E0ACE4B2E001C01D92A231B207DC
:10013000E1F70E94D9020C941E060C940000F8947A
:100140008EE092E00E94340378948FE39CE901975B
:10015000F1F700C00000F3CFF89480E192E00E9434
:10016000340378948FE39CE90197F1F700C0000015
:10017000F3CF279AC0E0D0E010E80BC015B9219664
:100180008FEF99E628E1815090402040E1F700C0D0
:100190000000F89483E192E00E9434037894C0FD5B
:1001A000EDCF15B8ECCF8A3049F09091C00095FFA3
:1001B000FCCF8093C60080E090E008959091C0004D
:1001C00095FFFCCF9DE09093C600EFCF9093C500C4
:1001D0008093C40086E08093C20088E98093C100C8
:1001E00008959091C00095FFFCCF8093C6000895BC
:1001F0008091C00087FFFCCF8091C6000895809158
:10020000C000881F8827881F0895FC0120812223B1
:1002100051F031969091C00095FFFCCF2093C6001D
:1002200021912111F7CF089580E092E090930F057E
:1002300080930E051092C50082E38093C40086E08F
:100240008093C20088E98093C10008957894A091BA
:100250005102B0915202109789F01296ED91FC91E3
:100260001397309759F014966D917D918D919C91D3
:1002700017971995A0915102B091520281E05296C0
:100280008C9308950F931F93FC015383428304833F
:10029000158326833783138612861186108682E0A3
:1002A000828B86E291E0DB018C9311979C931197EE
:1002B0001C9211971C9211971C9211971C921197E6
:1002C0001C9211971C9211971C9211971C921197D6
:1002D0001C9211971C9211971C9211971C921197C6
:1002E0001C9211971C9211971C9211971C921197B6
:1002F0001C9211971C9211971C9211971C921197A6
:100300001C9267517109718360831F910F91089549
:10031000CF93DF93FC01A081B1811097B1F084816C
:100320008130B9F01896CD91DC911997D183C083B3
:10033000DB87CA8784818150848319961C921E9220
:1003400018971B961C921E921A97CD01DF91CF91A0
:1003500008951382128211821082EDCFDB011A966A
:100360002D913C911B97232B11F08FEF0895189638
:100370002D913C911997232BC1F7FC012481211168
:1003800015C071836083738362831B967C936E9325
:100390001A9719961C921E921897DC0114962C91AC
:1003A00014972F5F14962C9380E008950280F381B8
:1003B000E02D71876087DB011B96FC93EE931A9703
:1003C00019961C921E921897FC0173836283E5CFE5
:1003D0000F931F93CF93DF93FC01C081D1818FE1F5
:1003E00092E00E9434032097E9F003E312E089854C
:1003F0008F9388858F938B858F938A858F93DF93D7
:10040000CF931F930F930E9420030884D985C02D9A
:10041000EDB7FEB738960FB6F894FEBF0FBEEDBF2E
:10042000209729F78AE292E0DF91CF911F910F91F7
:100430000C9434032F923F924F925F926F927F926F
:100440008F929F92AF92BF92CF92DF92EF92FF92E4
:100450000F931F93CF93DF930BB60F920CB60F92AF
:100460000DB71EB7C82FD92F08831983C62FD72FD2
:10047000088119810DBF1EBF0F900CB60F900BB6EF
:10048000DF91CF911F910F91FF90EF90DF90CF9070
:10049000BF90AF909F908F907F906F905F904F90A4
:1004A0003F902F900895C82FD92F088119810DBF33
:1004B0001EBF0F900CB60F900BB6DF91CF911F911E
:1004C0000F91FF90EF90DF90CF90BF90AF909F90F3
:1004D0008F907F906F905F904F903F902F901895E6
:1004E0008AE698E1909389008093880082E0809367
:1004F0006F008CE08093810008951F920F920FB6D9
:100500000F9211240BB60F922F933F934F935F934B
:100510006F937F938F939F93AF93BF93EF93FF93CB
:100520000E94BA02FF91EF91BF91AF919F918F917D
:100530007F916F915F914F913F912F910F900BBEE3
:100540000F900FBE0F901F901895F8948CE492E0D6
:100550000E9488019093520280935102892B41F0AE
:100560000E94700280915102909152020C945302A9
:100570000E941B03CF93DF93C0915102D09152028E
:10058000BE018CE492E00E94AE018CE492E00E94F5
:1005900088019093520280935102C817D90731F015
:1005A000BC01CE01DF91CF910C941A02DF91CF9163
:1005B00008950F931F930E94140100E010E098012A
:1005C0004FE950E068EF73E089EF93E00E94420149
:1005D00000E010E098014CEA50E062E573E086E646
:1005E00093E00E94420100E010E0980149EB50E0E6
:1005F0006BE075E083E593E00E94420166E673E0FC
:100600008CE492E00E94AE0163E573E08CE492E03A
:100610000E94AE0169EF73E08CE492E00E94AE01AB
:1006200086E192E00E9434030E94A50280E090E0FF
:100630001F910F91089581E090E0F8940C941E06AC
:10064000CF93DF93CDB7DEB7AE014A5F5F4FFA01BC
:1006500061917191AF0180910E0590910F050E94FB
:100660006403DF91CF9108950F931F93CF93DF938E
:10067000E0910E05F0910F05238121FF1BC08C0135
:10068000D0E0C0E0F80181918F0160910E0570917A
:100690000F05DB011896ED91FC911997882331F035
:1006A0001995892B79F3DFEFCFEFECCF8AE019951D
:1006B000892B19F08FEF9FEF02C08D2F9C2FDF91B8
:1006C000CF911F910F9108952F923F924F925F9279
:1006D0006F927F928F929F92AF92BF92CF92DF9252
:1006E000EF92FF920F931F93CF93DF93CDB7DEB7B7
:1006F0002B970FB6F894DEBF0FBECDBF6C017B0108
:100700008A01FC0117821682838181FFCCC1CE0150
:1007100001963C01F6019381F70193FD859193FFCA
:1007200081917F01882309F4BAC1853239F493FDA0
:10073000859193FF81917F01853229F4B60190E084
:100740000E948405E7CF912C212C312CFFE1F31579
:10075000D8F08B3279F038F4803279F08332A1F41A
:10076000232D20611DC08D3261F0803369F4232D6B
:10077000216016C0832D8260382EE32DE4603E2E6A
:100780002AC0F32DF8601DC037FC2DC020ED280FC6
:100790002A3040F08E32B9F436FC81C1232D20641A
:1007A000322E19C036FE06C08AE0989E200D112414
:1007B000922E11C0EAE02E9E200D1124222EF32D40
:1007C000F0623F2E08C08C3621F4832D8068382ECD
:1007D00002C0883641F4F70193FD859193FF819122
:1007E0007F018111B3CF982F9F7D9554933028F4CA
:1007F0000C5F1F4F9FE399830DC0833631F0833721
:1008000071F0833509F059C021C0F80180818983D6
:100810000E5F1F4F88248394912C530113C028012D
:10082000F2E04F0E511CF801A080B18036FE03C0EB
:10083000692D70E002C06FEF7FEFC5010E9479055E
:100840004C018201F32DFF773F2E16C0280122E0D4
:10085000420E511CF801A080B18036FE03C0692D04
:1008600070E002C06FEF7FEFC5010E946E054C0182
:10087000F32DF0683F2E820133FC1BC0822D90E0E7
:1008800088169906B0F4B60180E290E00E948405D3
:100890002A94F4CFF50137FC859137FE81915F01F1
:1008A000B60190E00E94840521102A9421E0821A6A
:1008B00091088114910471F7E8C0843611F08936EB
:1008C00041F5F80137FE07C0608171818281938113
:1008D0000C5F1F4F08C060817181072E000C880BD0
:1008E000990B0E5F1F4FF32DFF763F2E97FF09C028
:1008F00090958095709561957F4F8F4F9F4FF068D1
:100900003F2E2AE030E0A3010E94C005882E861801
:1009100045C0853731F4232D2F7EB22E2AE030E0FA
:1009200025C0932D997FB92E8F36C1F018F48835E4
:1009300079F0B5C0803719F0883721F0B0C0E92FC1
:10094000E061BE2EB4FE0DC0FB2DF460BF2E09C0C9
:1009500034FE0AC0292F2660B22E06C028E030E0FF
:1009600005C020E130E002C020E132E0F801B7FE2E
:1009700007C060817181828193810C5F1F4F06C027
:100980006081718180E090E00E5F1F4FA3010E94A3
:10099000C005882E8618FB2DFF773F2E36FE0DC032
:1009A000232D2E7FA22E891458F434FE0BC032FC66
:1009B00009C0832D8E7EA82E05C0B82CA32C03C0A1
:1009C000B82C01C0B92CA4FE0FC0FE01E80DF11D2A
:1009D0008081803321F49A2D997EA92E09C0A2FE30
:1009E00006C0B394B39404C08A2D867809F0B394FA
:1009F000A3FC11C0A0FE06C0B21488F4280C922CEF
:100A00009B180EC0B21460F4B60180E290E00E9420
:100A10008405B394F7CFB21418F42B1802C0982CA5
:100A2000212CA4FE10C0B60180E390E00E94840552
:100A3000A2FE17C0A1FC03C088E790E002C088E5D1
:100A400090E0B6010CC08A2D867859F0A1FE02C054
:100A50008BE201C080E2A7FC8DE2B60190E00E942B
:100A60008405891438F4B60180E390E00E9484057F
:100A70009A94F7CF8A94F301E80DF11D8081B601B5
:100A800090E00E9484058110F5CF222009F442CE27
:100A9000B60180E290E00E9484052A94F6CFF60128
:100AA0008681978102C08FEF9FEF2B960FB6F89447
:100AB000DEBF0FBECDBFDF91CF911F910F91FF9091
:100AC000EF90DF90CF90BF90AF909F908F907F90EE
:100AD0006F905F904F903F902F900895FC0105908C
:100AE000615070400110D8F7809590958E0F9F1F30
:100AF0000895FC016150704001900110D8F7809575
:100B000090958E0F9F1F08950F931F93CF93DF93A0
:100B1000FB01238121FD03C08FEF9FEF2CC022FF3B
:100B200016C046815781248135814217530744F40A
:100B3000A081B1819D012F5F3F4F318320838C9332
:100B4000268137812F5F3F4F3783268314C08B0167
:100B5000EC01FB010084F185E02D1995892BE1F66C
:100B6000D80116968D919C911797019617969C9394
:100B70008E931697CE01DF91CF911F910F9108951B
:100B8000FA01AA27283051F1203181F1E8946F93BE
:100B90006E7F6E5F7F4F8F4F9F4FAF4FB1E03ED064
:100BA000B4E03CD0670F781F891F9A1FA11D680F02
:100BB000791F8A1F911DA11D6A0F711D811D911D35
:100BC000A11D20D009F468943F912AE0269F1124AA
:100BD0003019305D3193DEF6CF010895462F47700E
:100BE000405D4193B3E00FD0C9F7F6CF462F4F7069
:100BF000405D4A3318F0495D31FD4052419302D0C7
:100C0000A9F7EACFB4E0A69597958795779567956C
:100C1000BA95C9F700976105710508959B01AC016C
:100C20000A2E06945795479537952795BA95C9F793
:100C3000620F731F841F951FA01D0895F894FFCFA6
:100C40000000000200000000D30000000000690066
:100C50007031007032007374617274696E67007372
:100C6000746172742D6C69737400656E642D6C69A7
:100C70007374005B633A2025702C20703A20257035
:0C0C80002C206E3A2025705D0A20000038
:00000001FF
